{
  "contractName": "Zinkaq",
  "abi": [
    {
      "inputs": [
        {
          "internalType": "string",
          "name": "_userName",
          "type": "string"
        },
        {
          "internalType": "string",
          "name": "_metadataUrl",
          "type": "string"
        }
      ],
      "stateMutability": "nonpayable",
      "type": "constructor"
    },
    {
      "inputs": [
        {
          "internalType": "string",
          "name": "_userName",
          "type": "string"
        },
        {
          "internalType": "string",
          "name": "_metadataUrl",
          "type": "string"
        }
      ],
      "name": "mint",
      "outputs": [
        {
          "internalType": "uint256",
          "name": "",
          "type": "uint256"
        }
      ],
      "stateMutability": "nonpayable",
      "type": "function"
    },
    {
      "inputs": [
        {
          "internalType": "uint256",
          "name": "_id",
          "type": "uint256"
        },
        {
          "internalType": "string",
          "name": "_userName",
          "type": "string"
        }
      ],
      "name": "changeUserName",
      "outputs": [],
      "stateMutability": "nonpayable",
      "type": "function"
    },
    {
      "inputs": [
        {
          "internalType": "uint256",
          "name": "_id",
          "type": "uint256"
        },
        {
          "internalType": "string",
          "name": "_metadataUrl",
          "type": "string"
        }
      ],
      "name": "changeMetadataUrl",
      "outputs": [],
      "stateMutability": "nonpayable",
      "type": "function"
    },
    {
      "inputs": [
        {
          "internalType": "string",
          "name": "_userName",
          "type": "string"
        }
      ],
      "name": "existUserName",
      "outputs": [
        {
          "internalType": "bool",
          "name": "",
          "type": "bool"
        }
      ],
      "stateMutability": "view",
      "type": "function",
      "constant": true
    },
    {
      "inputs": [
        {
          "internalType": "string",
          "name": "_userName",
          "type": "string"
        }
      ],
      "name": "getIdByUserName",
      "outputs": [
        {
          "internalType": "uint256",
          "name": "",
          "type": "uint256"
        }
      ],
      "stateMutability": "view",
      "type": "function",
      "constant": true
    },
    {
      "inputs": [],
      "name": "getUserIds",
      "outputs": [
        {
          "internalType": "uint256[]",
          "name": "",
          "type": "uint256[]"
        }
      ],
      "stateMutability": "view",
      "type": "function",
      "constant": true
    },
    {
      "inputs": [
        {
          "internalType": "uint256",
          "name": "_tokenId",
          "type": "uint256"
        }
      ],
      "name": "ownerOf",
      "outputs": [
        {
          "internalType": "address",
          "name": "",
          "type": "address"
        }
      ],
      "stateMutability": "view",
      "type": "function",
      "constant": true
    },
    {
      "inputs": [
        {
          "internalType": "address",
          "name": "_owner",
          "type": "address"
        }
      ],
      "name": "balanceOf",
      "outputs": [
        {
          "internalType": "uint256",
          "name": "",
          "type": "uint256"
        }
      ],
      "stateMutability": "view",
      "type": "function",
      "constant": true
    },
    {
      "inputs": [
        {
          "internalType": "uint256",
          "name": "_id",
          "type": "uint256"
        }
      ],
      "name": "tokenURI",
      "outputs": [
        {
          "internalType": "string",
          "name": "",
          "type": "string"
        }
      ],
      "stateMutability": "view",
      "type": "function",
      "constant": true
    }
  ],
  "bytecode": "0x60806040523480156200001157600080fd5b5060405162001b0a38038062001b0a8339818101604052810190620000379190620004c6565b600080819055506200005082826200005960201b60201c565b50505062000788565b60006200006d83836200007560201b60201c565b905092915050565b600062000088836200024c60201b60201c565b15620000cb576040517f08c379a0000000000000000000000000000000000000000000000000000000008152600401620000c290620005ac565b60405180910390fd5b6001600080828254620000df919062000607565b9250508190555033600160008054815260200190815260200160002060006101000a81548173ffffffffffffffffffffffffffffffffffffffff021916908373ffffffffffffffffffffffffffffffffffffffff1602179055506001600560003373ffffffffffffffffffffffffffffffffffffffff1673ffffffffffffffffffffffffffffffffffffffff16815260200190815260200160002060008282829054906101000a900467ffffffffffffffff166200019e919062000678565b92506101000a81548167ffffffffffffffff021916908367ffffffffffffffff160217905550600054600284604051620001d991906200070a565b90815260200160405180910390208190555081600460008054815260200190815260200160002090805190602001906200021592919062000279565b5082600360008054815260200190815260200160002090805190602001906200024092919062000279565b50600054905092915050565b6000806002836040516200026191906200070a565b90815260200160405180910390205414159050919050565b828054620002879062000752565b90600052602060002090601f016020900481019282620002ab5760008555620002f7565b82601f10620002c657805160ff1916838001178555620002f7565b82800160010185558215620002f7579182015b82811115620002f6578251825591602001919060010190620002d9565b5b5090506200030691906200030a565b5090565b5b80821115620003255760008160009055506001016200030b565b5090565b6000604051905090565b600080fd5b600080fd5b600080fd5b600080fd5b6000601f19601f8301169050919050565b7f4e487b7100000000000000000000000000000000000000000000000000000000600052604160045260246000fd5b620003928262000347565b810181811067ffffffffffffffff82111715620003b457620003b362000358565b5b80604052505050565b6000620003c962000329565b9050620003d7828262000387565b919050565b600067ffffffffffffffff821115620003fa57620003f962000358565b5b620004058262000347565b9050602081019050919050565b60005b838110156200043257808201518184015260208101905062000415565b8381111562000442576000848401525b50505050565b60006200045f6200045984620003dc565b620003bd565b9050828152602081018484840111156200047e576200047d62000342565b5b6200048b84828562000412565b509392505050565b600082601f830112620004ab57620004aa6200033d565b5b8151620004bd84826020860162000448565b91505092915050565b60008060408385031215620004e057620004df62000333565b5b600083015167ffffffffffffffff81111562000501576200050062000338565b5b6200050f8582860162000493565b925050602083015167ffffffffffffffff81111562000533576200053262000338565b5b620005418582860162000493565b9150509250929050565b600082825260208201905092915050565b7f557365724e616d6520697320616c726561647920657869737465642e00000000600082015250565b600062000594601c836200054b565b9150620005a1826200055c565b602082019050919050565b60006020820190508181036000830152620005c78162000585565b9050919050565b6000819050919050565b7f4e487b7100000000000000000000000000000000000000000000000000000000600052601160045260246000fd5b60006200061482620005ce565b91506200062183620005ce565b9250827fffffffffffffffffffffffffffffffffffffffffffffffffffffffffffffffff03821115620006595762000658620005d8565b5b828201905092915050565b600067ffffffffffffffff82169050919050565b6000620006858262000664565b9150620006928362000664565b92508267ffffffffffffffff03821115620006b257620006b1620005d8565b5b828201905092915050565b600081519050919050565b600081905092915050565b6000620006e082620006bd565b620006ec8185620006c8565b9350620006fe81856020860162000412565b80840191505092915050565b6000620007188284620006d3565b915081905092915050565b7f4e487b7100000000000000000000000000000000000000000000000000000000600052602260045260246000fd5b600060028204905060018216806200076b57607f821691505b6020821081141562000782576200078162000723565b5b50919050565b61137280620007986000396000f3fe608060405234801561001057600080fd5b50600436106100935760003560e01c80636352211e116100665780636352211e1461013057806370a08231146101605780638aa0fdad14610190578063c87b56dd146101c0578063e01da11e146101f057610093565b80633300cd191461009857806339c5d6eb146100b4578063554fa278146100e457806360b0ba6914610100575b600080fd5b6100b260048036038101906100ad9190610c78565b61020e565b005b6100ce60048036038101906100c99190610cd4565b6102bf565b6040516100db9190610d2c565b60405180910390f35b6100fe60048036038101906100f99190610c78565b6102e7565b005b61011a60048036038101906101159190610cd4565b610398565b6040516101279190610d62565b60405180910390f35b61014a60048036038101906101459190610d7d565b6103c3565b6040516101579190610deb565b60405180910390f35b61017a60048036038101906101759190610e32565b610400565b6040516101879190610d2c565b60405180910390f35b6101aa60048036038101906101a59190610e5f565b610467565b6040516101b79190610d2c565b60405180910390f35b6101da60048036038101906101d59190610d7d565b61047b565b6040516101e79190610f5f565b60405180910390f35b6101f8610520565b604051610205919061103f565b60405180910390f35b813373ffffffffffffffffffffffffffffffffffffffff166001600083815260200190815260200160002060009054906101000a900473ffffffffffffffffffffffffffffffffffffffff1673ffffffffffffffffffffffffffffffffffffffff16146102b0576040517f08c379a00000000000000000000000000000000000000000000000000000000081526004016102a7906110ad565b60405180910390fd5b6102ba83836106fa565b505050565b60006002826040516102d19190611109565b9081526020016040518091039020549050919050565b813373ffffffffffffffffffffffffffffffffffffffff166001600083815260200190815260200160002060009054906101000a900473ffffffffffffffffffffffffffffffffffffffff1673ffffffffffffffffffffffffffffffffffffffff1614610389576040517f08c379a0000000000000000000000000000000000000000000000000000000008152600401610380906110ad565b60405180910390fd5b6103938383610857565b505050565b6000806002836040516103ab9190611109565b90815260200160405180910390205414159050919050565b60006001600083815260200190815260200160002060009054906101000a900473ffffffffffffffffffffffffffffffffffffffff169050919050565b6000600560008373ffffffffffffffffffffffffffffffffffffffff1673ffffffffffffffffffffffffffffffffffffffff16815260200190815260200160002060009054906101000a900467ffffffffffffffff1667ffffffffffffffff169050919050565b60006104738383610883565b905092915050565b606060046000838152602001908152602001600020805461049b9061114f565b80601f01602080910402602001604051908101604052809291908181526020018280546104c79061114f565b80156105145780601f106104e957610100808354040283529160200191610514565b820191906000526020600020905b8154815290600101906020018083116104f757829003601f168201915b50505050509050919050565b60606000600560003373ffffffffffffffffffffffffffffffffffffffff1673ffffffffffffffffffffffffffffffffffffffff16815260200190815260200160002060009054906101000a900467ffffffffffffffff1667ffffffffffffffff1667ffffffffffffffff81111561059b5761059a610b4d565b5b6040519080825280602002602001820160405280156105c95781602001602082028036833780820191505090505b509050600080600190505b60005481116106f1573373ffffffffffffffffffffffffffffffffffffffff166001600083815260200190815260200160002060009054906101000a900473ffffffffffffffffffffffffffffffffffffffff1673ffffffffffffffffffffffffffffffffffffffff161415610674578083838151811061065857610657611181565b5b60200260200101818152505060018261067191906111df565b91505b600560003373ffffffffffffffffffffffffffffffffffffffff1673ffffffffffffffffffffffffffffffffffffffff16815260200190815260200160002060009054906101000a900467ffffffffffffffff1667ffffffffffffffff168214156106de576106f1565b80806106e990611235565b9150506105d4565b50819250505090565b61070381610398565b15610743576040517f08c379a000000000000000000000000000000000000000000000000000000000815260040161073a906112ca565b60405180910390fd5b60006003600084815260200190815260200160002080546107639061114f565b80601f016020809104026020016040519081016040528092919081815260200182805461078f9061114f565b80156107dc5780601f106107b1576101008083540402835291602001916107dc565b820191906000526020600020905b8154815290600101906020018083116107bf57829003601f168201915b5050505050905060006002826040516107f59190611109565b908152602001604051809103902081905550826002836040516108189190611109565b90815260200160405180910390208190555081600360008581526020019081526020016000209080519060200190610851929190610a45565b50505050565b8060046000848152602001908152602001600020908051906020019061087e929190610a45565b505050565b600061088e83610398565b156108ce576040517f08c379a00000000000000000000000000000000000000000000000000000000081526004016108c5906112ca565b60405180910390fd5b60016000808282546108e091906111df565b9250508190555033600160008054815260200190815260200160002060006101000a81548173ffffffffffffffffffffffffffffffffffffffff021916908373ffffffffffffffffffffffffffffffffffffffff1602179055506001600560003373ffffffffffffffffffffffffffffffffffffffff1673ffffffffffffffffffffffffffffffffffffffff16815260200190815260200160002060008282829054906101000a900467ffffffffffffffff1661099d91906112fe565b92506101000a81548167ffffffffffffffff021916908367ffffffffffffffff1602179055506000546002846040516109d69190611109565b9081526020016040518091039020819055508160046000805481526020019081526020016000209080519060200190610a10929190610a45565b508260036000805481526020019081526020016000209080519060200190610a39929190610a45565b50600054905092915050565b828054610a519061114f565b90600052602060002090601f016020900481019282610a735760008555610aba565b82601f10610a8c57805160ff1916838001178555610aba565b82800160010185558215610aba579182015b82811115610ab9578251825591602001919060010190610a9e565b5b509050610ac79190610acb565b5090565b5b80821115610ae4576000816000905550600101610acc565b5090565b6000604051905090565b600080fd5b600080fd5b6000819050919050565b610b0f81610afc565b8114610b1a57600080fd5b50565b600081359050610b2c81610b06565b92915050565b600080fd5b600080fd5b6000601f19601f8301169050919050565b7f4e487b7100000000000000000000000000000000000000000000000000000000600052604160045260246000fd5b610b8582610b3c565b810181811067ffffffffffffffff82111715610ba457610ba3610b4d565b5b80604052505050565b6000610bb7610ae8565b9050610bc38282610b7c565b919050565b600067ffffffffffffffff821115610be357610be2610b4d565b5b610bec82610b3c565b9050602081019050919050565b82818337600083830152505050565b6000610c1b610c1684610bc8565b610bad565b905082815260208101848484011115610c3757610c36610b37565b5b610c42848285610bf9565b509392505050565b600082601f830112610c5f57610c5e610b32565b5b8135610c6f848260208601610c08565b91505092915050565b60008060408385031215610c8f57610c8e610af2565b5b6000610c9d85828601610b1d565b925050602083013567ffffffffffffffff811115610cbe57610cbd610af7565b5b610cca85828601610c4a565b9150509250929050565b600060208284031215610cea57610ce9610af2565b5b600082013567ffffffffffffffff811115610d0857610d07610af7565b5b610d1484828501610c4a565b91505092915050565b610d2681610afc565b82525050565b6000602082019050610d416000830184610d1d565b92915050565b60008115159050919050565b610d5c81610d47565b82525050565b6000602082019050610d776000830184610d53565b92915050565b600060208284031215610d9357610d92610af2565b5b6000610da184828501610b1d565b91505092915050565b600073ffffffffffffffffffffffffffffffffffffffff82169050919050565b6000610dd582610daa565b9050919050565b610de581610dca565b82525050565b6000602082019050610e006000830184610ddc565b92915050565b610e0f81610dca565b8114610e1a57600080fd5b50565b600081359050610e2c81610e06565b92915050565b600060208284031215610e4857610e47610af2565b5b6000610e5684828501610e1d565b91505092915050565b60008060408385031215610e7657610e75610af2565b5b600083013567ffffffffffffffff811115610e9457610e93610af7565b5b610ea085828601610c4a565b925050602083013567ffffffffffffffff811115610ec157610ec0610af7565b5b610ecd85828601610c4a565b9150509250929050565b600081519050919050565b600082825260208201905092915050565b60005b83811015610f11578082015181840152602081019050610ef6565b83811115610f20576000848401525b50505050565b6000610f3182610ed7565b610f3b8185610ee2565b9350610f4b818560208601610ef3565b610f5481610b3c565b840191505092915050565b60006020820190508181036000830152610f798184610f26565b905092915050565b600081519050919050565b600082825260208201905092915050565b6000819050602082019050919050565b610fb681610afc565b82525050565b6000610fc88383610fad565b60208301905092915050565b6000602082019050919050565b6000610fec82610f81565b610ff68185610f8c565b935061100183610f9d565b8060005b838110156110325781516110198882610fbc565b975061102483610fd4565b925050600181019050611005565b5085935050505092915050565b600060208201905081810360008301526110598184610fe1565b905092915050565b7f54686973206973206e6f7420796f757220757365722e00000000000000000000600082015250565b6000611097601683610ee2565b91506110a282611061565b602082019050919050565b600060208201905081810360008301526110c68161108a565b9050919050565b600081905092915050565b60006110e382610ed7565b6110ed81856110cd565b93506110fd818560208601610ef3565b80840191505092915050565b600061111582846110d8565b915081905092915050565b7f4e487b7100000000000000000000000000000000000000000000000000000000600052602260045260246000fd5b6000600282049050600182168061116757607f821691505b6020821081141561117b5761117a611120565b5b50919050565b7f4e487b7100000000000000000000000000000000000000000000000000000000600052603260045260246000fd5b7f4e487b7100000000000000000000000000000000000000000000000000000000600052601160045260246000fd5b60006111ea82610afc565b91506111f583610afc565b9250827fffffffffffffffffffffffffffffffffffffffffffffffffffffffffffffffff0382111561122a576112296111b0565b5b828201905092915050565b600061124082610afc565b91507fffffffffffffffffffffffffffffffffffffffffffffffffffffffffffffffff821415611273576112726111b0565b5b600182019050919050565b7f557365724e616d6520697320616c726561647920657869737465642e00000000600082015250565b60006112b4601c83610ee2565b91506112bf8261127e565b602082019050919050565b600060208201905081810360008301526112e3816112a7565b9050919050565b600067ffffffffffffffff82169050919050565b6000611309826112ea565b9150611314836112ea565b92508267ffffffffffffffff03821115611331576113306111b0565b5b82820190509291505056fea2646970667358221220e9cd380f7144e353a9b07b142a08d3114d4c62953b7093e752e53a33a3f15b1364736f6c634300080b0033",
  "immutableReferences": {},
  "source": "// SPDX-License-Identifier: MIT\npragma solidity ^0.8.11;\n\nimport \"@openzeppelin/contracts-upgradeable/utils/cryptography/ECDSAUpgradeable.sol\";\nimport \"@openzeppelin/contracts-upgradeable/utils/math/SafeMathUpgradeable.sol\";\nimport \"../data/MemberDataLayout.sol\";\n\ncontract Zinkaq is MemberDataLayout {\n  using SafeMathUpgradeable for uint256;\n  using ECDSAUpgradeable for bytes32;\n\n  constructor(\n    string memory _userName,\n    string memory _metadataUrl\n  ) public {\n    _currentId = 0;\n    mint(_userName, _metadataUrl);\n  }\n\n  modifier ownOnly(uint256 _id) {\n    require(_ids[_id] == msg.sender, \"This is not your user.\");\n    _;\n  }\n\n  function mint(string memory _userName, string memory _metadataUrl) public returns (uint256) {\n    return _mint(_userName, _metadataUrl);\n  }\n\n  function changeUserName(uint256 _id, string memory _userName) public ownOnly(_id) {\n    _changeUserName(_id, _userName);\n  }\n\n  function changeMetadataUrl(uint256 _id, string memory _metadataUrl) public ownOnly(_id) {\n    _changeMetadataUrl(_id, _metadataUrl);\n  }\n\n  function existUserName(string memory _userName) public view returns(bool) {\n    return _userNameIds[_userName] != 0;\n  }\n\n  function getIdByUserName(string memory _userName) public view returns (uint256) {\n    return _userNameIds[_userName];\n  }\n\n  function _mint(string memory _userName, string memory _url) private returns (uint256) {\n    require(!existUserName(_userName), \"UserName is already existed.\");\n    _currentId += 1;\n    _ids[_currentId] = msg.sender;\n    _mintCounts[msg.sender] += 1;\n    _userNameIds[_userName] = _currentId;\n    _metadataUrl[_currentId] = _url;\n    _idsUserName[_currentId] = _userName;\n    return _currentId;\n  }\n\n  function getUserIds() public view returns (uint256[] memory) {\n    uint256[] memory ids = new uint256[](_mintCounts[msg.sender]);\n    uint256 count = 0;\n    for (uint256 i = 1; i <= _currentId; i++) {\n      if (_ids[i] == msg.sender) {\n        ids[count] = i;\n        count += 1;\n      }\n      if (count == _mintCounts[msg.sender]) {\n        break;\n      }\n    }\n    return ids;\n  }\n\n  function _changeUserName(uint256 _id, string memory _userName) private {\n    require(!existUserName(_userName), \"UserName is already existed.\");\n    string memory oldUserName = _idsUserName[_id];\n    _userNameIds[oldUserName] = 0;\n    _userNameIds[_userName] = _id;\n    _idsUserName[_id] = _userName;\n  }\n\n    function _changeMetadataUrl(uint256 _id, string memory _url) private {\n      _metadataUrl[_id] = _url;\n    }\n\n  // Like ERC-721  Functions\n  function ownerOf(uint256 _tokenId) external view returns (address) {\n    return _ids[_tokenId];\n  }\n\n  function balanceOf(address _owner) external view returns (uint256) {\n    return _mintCounts[_owner];\n  }\n\n  function tokenURI(uint256 _id) public view returns (string memory) {\n    return _metadataUrl[_id];\n  }\n}\n",
  "sourcePath": "/Users/swallow/hoby/zinkaq/blockchain/contracts/v1/Zinkaq.sol",
  "compiler": {
    "name": "solc",
    "version": "0.8.11+commit.d7f03943.Emscripten.clang"
  },
  "schemaVersion": "3.4.4",
  "updatedAt": "2022-09-09T08:39:31.428Z",
  "networkType": "ethereum",
  "devdoc": {
    "kind": "dev",
    "methods": {},
    "version": 1
  },
  "userdoc": {
    "kind": "user",
    "methods": {},
    "version": 1
  }
}