{
  "contractName": "Zinkaq",
  "abi": [
    {
      "inputs": [
        {
          "internalType": "string",
          "name": "_userName",
          "type": "string"
        },
        {
          "internalType": "string",
          "name": "_metadataUrl",
          "type": "string"
        }
      ],
      "stateMutability": "nonpayable",
      "type": "constructor"
    },
    {
      "inputs": [
        {
          "internalType": "string",
          "name": "_userName",
          "type": "string"
        },
        {
          "internalType": "string",
          "name": "_metadataUrl",
          "type": "string"
        }
      ],
      "name": "mint",
      "outputs": [
        {
          "internalType": "uint256",
          "name": "",
          "type": "uint256"
        }
      ],
      "stateMutability": "nonpayable",
      "type": "function"
    },
    {
      "inputs": [
        {
          "internalType": "uint256",
          "name": "_id",
          "type": "uint256"
        },
        {
          "internalType": "string",
          "name": "_userName",
          "type": "string"
        }
      ],
      "name": "changeUserName",
      "outputs": [],
      "stateMutability": "nonpayable",
      "type": "function"
    },
    {
      "inputs": [
        {
          "internalType": "uint256",
          "name": "_id",
          "type": "uint256"
        },
        {
          "internalType": "string",
          "name": "_metadataUrl",
          "type": "string"
        }
      ],
      "name": "changeMetadataUrl",
      "outputs": [],
      "stateMutability": "nonpayable",
      "type": "function"
    },
    {
      "inputs": [
        {
          "internalType": "string",
          "name": "_userName",
          "type": "string"
        }
      ],
      "name": "existUserName",
      "outputs": [
        {
          "internalType": "bool",
          "name": "",
          "type": "bool"
        }
      ],
      "stateMutability": "view",
      "type": "function",
      "constant": true
    },
    {
      "inputs": [
        {
          "internalType": "string",
          "name": "_userName",
          "type": "string"
        }
      ],
      "name": "getIdByUserName",
      "outputs": [
        {
          "internalType": "uint256",
          "name": "",
          "type": "uint256"
        }
      ],
      "stateMutability": "view",
      "type": "function",
      "constant": true
    },
    {
      "inputs": [
        {
          "internalType": "uint256",
          "name": "_tokenId",
          "type": "uint256"
        }
      ],
      "name": "ownerOf",
      "outputs": [
        {
          "internalType": "address",
          "name": "",
          "type": "address"
        }
      ],
      "stateMutability": "view",
      "type": "function",
      "constant": true
    },
    {
      "inputs": [
        {
          "internalType": "address",
          "name": "_owner",
          "type": "address"
        }
      ],
      "name": "balanceOf",
      "outputs": [
        {
          "internalType": "uint256",
          "name": "",
          "type": "uint256"
        }
      ],
      "stateMutability": "view",
      "type": "function",
      "constant": true
    },
    {
      "inputs": [
        {
          "internalType": "uint256",
          "name": "_id",
          "type": "uint256"
        }
      ],
      "name": "tokenURI",
      "outputs": [
        {
          "internalType": "string",
          "name": "",
          "type": "string"
        }
      ],
      "stateMutability": "view",
      "type": "function",
      "constant": true
    }
  ],
  "bytecode": "0x60806040523480156200001157600080fd5b50604051620017af380380620017af8339818101604052810190620000379190620004c6565b600080819055506200005082826200005960201b60201c565b50505062000788565b60006200006d83836200007560201b60201c565b905092915050565b600062000088836200024c60201b60201c565b15620000cb576040517f08c379a0000000000000000000000000000000000000000000000000000000008152600401620000c290620005ac565b60405180910390fd5b6001600080828254620000df919062000607565b9250508190555033600160008054815260200190815260200160002060006101000a81548173ffffffffffffffffffffffffffffffffffffffff021916908373ffffffffffffffffffffffffffffffffffffffff1602179055506001600560003373ffffffffffffffffffffffffffffffffffffffff1673ffffffffffffffffffffffffffffffffffffffff16815260200190815260200160002060008282829054906101000a900467ffffffffffffffff166200019e919062000678565b92506101000a81548167ffffffffffffffff021916908367ffffffffffffffff160217905550600054600284604051620001d991906200070a565b90815260200160405180910390208190555081600460008054815260200190815260200160002090805190602001906200021592919062000279565b5082600360008054815260200190815260200160002090805190602001906200024092919062000279565b50600054905092915050565b6000806002836040516200026191906200070a565b90815260200160405180910390205414159050919050565b828054620002879062000752565b90600052602060002090601f016020900481019282620002ab5760008555620002f7565b82601f10620002c657805160ff1916838001178555620002f7565b82800160010185558215620002f7579182015b82811115620002f6578251825591602001919060010190620002d9565b5b5090506200030691906200030a565b5090565b5b80821115620003255760008160009055506001016200030b565b5090565b6000604051905090565b600080fd5b600080fd5b600080fd5b600080fd5b6000601f19601f8301169050919050565b7f4e487b7100000000000000000000000000000000000000000000000000000000600052604160045260246000fd5b620003928262000347565b810181811067ffffffffffffffff82111715620003b457620003b362000358565b5b80604052505050565b6000620003c962000329565b9050620003d7828262000387565b919050565b600067ffffffffffffffff821115620003fa57620003f962000358565b5b620004058262000347565b9050602081019050919050565b60005b838110156200043257808201518184015260208101905062000415565b8381111562000442576000848401525b50505050565b60006200045f6200045984620003dc565b620003bd565b9050828152602081018484840111156200047e576200047d62000342565b5b6200048b84828562000412565b509392505050565b600082601f830112620004ab57620004aa6200033d565b5b8151620004bd84826020860162000448565b91505092915050565b60008060408385031215620004e057620004df62000333565b5b600083015167ffffffffffffffff81111562000501576200050062000338565b5b6200050f8582860162000493565b925050602083015167ffffffffffffffff81111562000533576200053262000338565b5b620005418582860162000493565b9150509250929050565b600082825260208201905092915050565b7f557365724e616d6520697320616c726561647920657869737465642e00000000600082015250565b600062000594601c836200054b565b9150620005a1826200055c565b602082019050919050565b60006020820190508181036000830152620005c78162000585565b9050919050565b6000819050919050565b7f4e487b7100000000000000000000000000000000000000000000000000000000600052601160045260246000fd5b60006200061482620005ce565b91506200062183620005ce565b9250827fffffffffffffffffffffffffffffffffffffffffffffffffffffffffffffffff03821115620006595762000658620005d8565b5b828201905092915050565b600067ffffffffffffffff82169050919050565b6000620006858262000664565b9150620006928362000664565b92508267ffffffffffffffff03821115620006b257620006b1620005d8565b5b828201905092915050565b600081519050919050565b600081905092915050565b6000620006e082620006bd565b620006ec8185620006c8565b9350620006fe81856020860162000412565b80840191505092915050565b6000620007188284620006d3565b915081905092915050565b7f4e487b7100000000000000000000000000000000000000000000000000000000600052602260045260246000fd5b600060028204905060018216806200076b57607f821691505b6020821081141562000782576200078162000723565b5b50919050565b61101780620007986000396000f3fe608060405234801561001057600080fd5b50600436106100885760003560e01c80636352211e1161005b5780636352211e1461012557806370a08231146101555780638aa0fdad14610185578063c87b56dd146101b557610088565b80633300cd191461008d57806339c5d6eb146100a9578063554fa278146100d957806360b0ba69146100f5575b600080fd5b6100a760048036038101906100a29190610a75565b6101e5565b005b6100c360048036038101906100be9190610ad1565b610296565b6040516100d09190610b29565b60405180910390f35b6100f360048036038101906100ee9190610a75565b6102be565b005b61010f600480360381019061010a9190610ad1565b61036f565b60405161011c9190610b5f565b60405180910390f35b61013f600480360381019061013a9190610b7a565b61039a565b60405161014c9190610be8565b60405180910390f35b61016f600480360381019061016a9190610c2f565b6103d7565b60405161017c9190610b29565b60405180910390f35b61019f600480360381019061019a9190610c5c565b61043e565b6040516101ac9190610b29565b60405180910390f35b6101cf60048036038101906101ca9190610b7a565b610452565b6040516101dc9190610d5c565b60405180910390f35b813373ffffffffffffffffffffffffffffffffffffffff166001600083815260200190815260200160002060009054906101000a900473ffffffffffffffffffffffffffffffffffffffff1673ffffffffffffffffffffffffffffffffffffffff1614610287576040517f08c379a000000000000000000000000000000000000000000000000000000000815260040161027e90610dca565b60405180910390fd5b61029183836104f7565b505050565b60006002826040516102a89190610e26565b9081526020016040518091039020549050919050565b813373ffffffffffffffffffffffffffffffffffffffff166001600083815260200190815260200160002060009054906101000a900473ffffffffffffffffffffffffffffffffffffffff1673ffffffffffffffffffffffffffffffffffffffff1614610360576040517f08c379a000000000000000000000000000000000000000000000000000000000815260040161035790610dca565b60405180910390fd5b61036a8383610654565b505050565b6000806002836040516103829190610e26565b90815260200160405180910390205414159050919050565b60006001600083815260200190815260200160002060009054906101000a900473ffffffffffffffffffffffffffffffffffffffff169050919050565b6000600560008373ffffffffffffffffffffffffffffffffffffffff1673ffffffffffffffffffffffffffffffffffffffff16815260200190815260200160002060009054906101000a900467ffffffffffffffff1667ffffffffffffffff169050919050565b600061044a8383610680565b905092915050565b606060046000838152602001908152602001600020805461047290610e6c565b80601f016020809104026020016040519081016040528092919081815260200182805461049e90610e6c565b80156104eb5780601f106104c0576101008083540402835291602001916104eb565b820191906000526020600020905b8154815290600101906020018083116104ce57829003601f168201915b50505050509050919050565b6105008161036f565b15610540576040517f08c379a000000000000000000000000000000000000000000000000000000000815260040161053790610eea565b60405180910390fd5b600060036000848152602001908152602001600020805461056090610e6c565b80601f016020809104026020016040519081016040528092919081815260200182805461058c90610e6c565b80156105d95780601f106105ae576101008083540402835291602001916105d9565b820191906000526020600020905b8154815290600101906020018083116105bc57829003601f168201915b5050505050905060006002826040516105f29190610e26565b908152602001604051809103902081905550826002836040516106159190610e26565b9081526020016040518091039020819055508160036000858152602001908152602001600020908051906020019061064e929190610842565b50505050565b8060046000848152602001908152602001600020908051906020019061067b929190610842565b505050565b600061068b8361036f565b156106cb576040517f08c379a00000000000000000000000000000000000000000000000000000000081526004016106c290610eea565b60405180910390fd5b60016000808282546106dd9190610f39565b9250508190555033600160008054815260200190815260200160002060006101000a81548173ffffffffffffffffffffffffffffffffffffffff021916908373ffffffffffffffffffffffffffffffffffffffff1602179055506001600560003373ffffffffffffffffffffffffffffffffffffffff1673ffffffffffffffffffffffffffffffffffffffff16815260200190815260200160002060008282829054906101000a900467ffffffffffffffff1661079a9190610fa3565b92506101000a81548167ffffffffffffffff021916908367ffffffffffffffff1602179055506000546002846040516107d39190610e26565b908152602001604051809103902081905550816004600080548152602001908152602001600020908051906020019061080d929190610842565b508260036000805481526020019081526020016000209080519060200190610836929190610842565b50600054905092915050565b82805461084e90610e6c565b90600052602060002090601f01602090048101928261087057600085556108b7565b82601f1061088957805160ff19168380011785556108b7565b828001600101855582156108b7579182015b828111156108b657825182559160200191906001019061089b565b5b5090506108c491906108c8565b5090565b5b808211156108e15760008160009055506001016108c9565b5090565b6000604051905090565b600080fd5b600080fd5b6000819050919050565b61090c816108f9565b811461091757600080fd5b50565b60008135905061092981610903565b92915050565b600080fd5b600080fd5b6000601f19601f8301169050919050565b7f4e487b7100000000000000000000000000000000000000000000000000000000600052604160045260246000fd5b61098282610939565b810181811067ffffffffffffffff821117156109a1576109a061094a565b5b80604052505050565b60006109b46108e5565b90506109c08282610979565b919050565b600067ffffffffffffffff8211156109e0576109df61094a565b5b6109e982610939565b9050602081019050919050565b82818337600083830152505050565b6000610a18610a13846109c5565b6109aa565b905082815260208101848484011115610a3457610a33610934565b5b610a3f8482856109f6565b509392505050565b600082601f830112610a5c57610a5b61092f565b5b8135610a6c848260208601610a05565b91505092915050565b60008060408385031215610a8c57610a8b6108ef565b5b6000610a9a8582860161091a565b925050602083013567ffffffffffffffff811115610abb57610aba6108f4565b5b610ac785828601610a47565b9150509250929050565b600060208284031215610ae757610ae66108ef565b5b600082013567ffffffffffffffff811115610b0557610b046108f4565b5b610b1184828501610a47565b91505092915050565b610b23816108f9565b82525050565b6000602082019050610b3e6000830184610b1a565b92915050565b60008115159050919050565b610b5981610b44565b82525050565b6000602082019050610b746000830184610b50565b92915050565b600060208284031215610b9057610b8f6108ef565b5b6000610b9e8482850161091a565b91505092915050565b600073ffffffffffffffffffffffffffffffffffffffff82169050919050565b6000610bd282610ba7565b9050919050565b610be281610bc7565b82525050565b6000602082019050610bfd6000830184610bd9565b92915050565b610c0c81610bc7565b8114610c1757600080fd5b50565b600081359050610c2981610c03565b92915050565b600060208284031215610c4557610c446108ef565b5b6000610c5384828501610c1a565b91505092915050565b60008060408385031215610c7357610c726108ef565b5b600083013567ffffffffffffffff811115610c9157610c906108f4565b5b610c9d85828601610a47565b925050602083013567ffffffffffffffff811115610cbe57610cbd6108f4565b5b610cca85828601610a47565b9150509250929050565b600081519050919050565b600082825260208201905092915050565b60005b83811015610d0e578082015181840152602081019050610cf3565b83811115610d1d576000848401525b50505050565b6000610d2e82610cd4565b610d388185610cdf565b9350610d48818560208601610cf0565b610d5181610939565b840191505092915050565b60006020820190508181036000830152610d768184610d23565b905092915050565b7f54686973206973206e6f7420796f757220757365722e00000000000000000000600082015250565b6000610db4601683610cdf565b9150610dbf82610d7e565b602082019050919050565b60006020820190508181036000830152610de381610da7565b9050919050565b600081905092915050565b6000610e0082610cd4565b610e0a8185610dea565b9350610e1a818560208601610cf0565b80840191505092915050565b6000610e328284610df5565b915081905092915050565b7f4e487b7100000000000000000000000000000000000000000000000000000000600052602260045260246000fd5b60006002820490506001821680610e8457607f821691505b60208210811415610e9857610e97610e3d565b5b50919050565b7f557365724e616d6520697320616c726561647920657869737465642e00000000600082015250565b6000610ed4601c83610cdf565b9150610edf82610e9e565b602082019050919050565b60006020820190508181036000830152610f0381610ec7565b9050919050565b7f4e487b7100000000000000000000000000000000000000000000000000000000600052601160045260246000fd5b6000610f44826108f9565b9150610f4f836108f9565b9250827fffffffffffffffffffffffffffffffffffffffffffffffffffffffffffffffff03821115610f8457610f83610f0a565b5b828201905092915050565b600067ffffffffffffffff82169050919050565b6000610fae82610f8f565b9150610fb983610f8f565b92508267ffffffffffffffff03821115610fd657610fd5610f0a565b5b82820190509291505056fea26469706673582212200f9e867e1846b833c514f5c8688da1b0bfb7dbfb5d4bf1a3897df8d2c866adf864736f6c634300080b0033",
  "immutableReferences": {},
  "source": "// SPDX-License-Identifier: MIT\npragma solidity ^0.8.11;\n\nimport \"@openzeppelin/contracts-upgradeable/utils/cryptography/ECDSAUpgradeable.sol\";\nimport \"@openzeppelin/contracts-upgradeable/utils/math/SafeMathUpgradeable.sol\";\nimport \"../data/MemberDataLayout.sol\";\n\ncontract Zinkaq is MemberDataLayout {\n  using SafeMathUpgradeable for uint256;\n  using ECDSAUpgradeable for bytes32;\n\n  constructor(\n    string memory _userName,\n    string memory _metadataUrl\n  ) public {\n    _currentId = 0;\n    mint(_userName, _metadataUrl);\n  }\n\n  modifier ownOnly(uint256 _id) {\n    require(_ids[_id] == msg.sender, \"This is not your user.\");\n    _;\n  }\n\n  function mint(string memory _userName, string memory _metadataUrl) public returns (uint256) {\n    return _mint(_userName, _metadataUrl);\n  }\n\n  function changeUserName(uint256 _id, string memory _userName) public ownOnly(_id) {\n    _changeUserName(_id, _userName);\n  }\n\n  function changeMetadataUrl(uint256 _id, string memory _metadataUrl) public ownOnly(_id) {\n    _changeMetadataUrl(_id, _metadataUrl);\n  }\n\n  function existUserName(string memory _userName) public view returns(bool) {\n    return _userNameIds[_userName] != 0;\n  }\n\n  function getIdByUserName(string memory _userName) public view returns (uint256) {\n    return _userNameIds[_userName];\n  }\n\n  function _mint(string memory _userName, string memory _url) private returns (uint256) {\n    require(!existUserName(_userName), \"UserName is already existed.\");\n    _currentId += 1;\n    _ids[_currentId] = msg.sender;\n    _mintCounts[msg.sender] += 1;\n    _userNameIds[_userName] = _currentId;\n    _metadataUrl[_currentId] = _url;\n    _idsUserName[_currentId] = _userName;\n    return _currentId;\n  }\n\n  function _changeUserName(uint256 _id, string memory _userName) private {\n    require(!existUserName(_userName), \"UserName is already existed.\");\n    string memory oldUserName = _idsUserName[_id];\n    _userNameIds[oldUserName] = 0;\n    _userNameIds[_userName] = _id;\n    _idsUserName[_id] = _userName;\n  }\n\n    function _changeMetadataUrl(uint256 _id, string memory _url) private {\n      _metadataUrl[_id] = _url;\n    }\n\n  // Like ERC-721  Functions\n  function ownerOf(uint256 _tokenId) external view returns (address) {\n    return _ids[_tokenId];\n  }\n\n  function balanceOf(address _owner) external view returns (uint256) {\n    return _mintCounts[_owner];\n  }\n\n  function tokenURI(uint256 _id) public view returns (string memory) {\n    return _metadataUrl[_id];\n  }\n}\n",
  "sourcePath": "/Users/swallow/hoby/zinkaq/blockchain/contracts/v1/Zinkaq.sol",
  "compiler": {
    "name": "solc",
    "version": "0.8.11+commit.d7f03943.Emscripten.clang"
  },
  "schemaVersion": "3.4.4",
  "updatedAt": "2022-09-05T04:39:50.096Z",
  "networkType": "ethereum",
  "devdoc": {
    "kind": "dev",
    "methods": {},
    "version": 1
  },
  "userdoc": {
    "kind": "user",
    "methods": {},
    "version": 1
  }
}