{
  "contractName": "Service",
  "abi": [
    {
      "anonymous": false,
      "inputs": [
        {
          "indexed": true,
          "internalType": "address",
          "name": "owner",
          "type": "address"
        },
        {
          "indexed": true,
          "internalType": "address",
          "name": "approved",
          "type": "address"
        },
        {
          "indexed": true,
          "internalType": "uint256",
          "name": "tokenId",
          "type": "uint256"
        }
      ],
      "name": "Approval",
      "type": "event"
    },
    {
      "anonymous": false,
      "inputs": [
        {
          "indexed": true,
          "internalType": "address",
          "name": "owner",
          "type": "address"
        },
        {
          "indexed": true,
          "internalType": "address",
          "name": "operator",
          "type": "address"
        },
        {
          "indexed": false,
          "internalType": "bool",
          "name": "approved",
          "type": "bool"
        }
      ],
      "name": "ApprovalForAll",
      "type": "event"
    },
    {
      "anonymous": false,
      "inputs": [
        {
          "indexed": false,
          "internalType": "uint8",
          "name": "version",
          "type": "uint8"
        }
      ],
      "name": "Initialized",
      "type": "event"
    },
    {
      "anonymous": false,
      "inputs": [
        {
          "indexed": true,
          "internalType": "address",
          "name": "from",
          "type": "address"
        },
        {
          "indexed": true,
          "internalType": "address",
          "name": "to",
          "type": "address"
        },
        {
          "indexed": true,
          "internalType": "uint256",
          "name": "tokenId",
          "type": "uint256"
        }
      ],
      "name": "Transfer",
      "type": "event"
    },
    {
      "inputs": [
        {
          "internalType": "address",
          "name": "to",
          "type": "address"
        },
        {
          "internalType": "uint256",
          "name": "tokenId",
          "type": "uint256"
        }
      ],
      "name": "approve",
      "outputs": [],
      "stateMutability": "nonpayable",
      "type": "function"
    },
    {
      "inputs": [
        {
          "internalType": "address",
          "name": "owner",
          "type": "address"
        }
      ],
      "name": "balanceOf",
      "outputs": [
        {
          "internalType": "uint256",
          "name": "",
          "type": "uint256"
        }
      ],
      "stateMutability": "view",
      "type": "function",
      "constant": true
    },
    {
      "inputs": [
        {
          "internalType": "uint256",
          "name": "tokenId",
          "type": "uint256"
        }
      ],
      "name": "getApproved",
      "outputs": [
        {
          "internalType": "address",
          "name": "",
          "type": "address"
        }
      ],
      "stateMutability": "view",
      "type": "function",
      "constant": true
    },
    {
      "inputs": [
        {
          "internalType": "address",
          "name": "owner",
          "type": "address"
        },
        {
          "internalType": "address",
          "name": "operator",
          "type": "address"
        }
      ],
      "name": "isApprovedForAll",
      "outputs": [
        {
          "internalType": "bool",
          "name": "",
          "type": "bool"
        }
      ],
      "stateMutability": "view",
      "type": "function",
      "constant": true
    },
    {
      "inputs": [],
      "name": "name",
      "outputs": [
        {
          "internalType": "string",
          "name": "",
          "type": "string"
        }
      ],
      "stateMutability": "view",
      "type": "function",
      "constant": true
    },
    {
      "inputs": [
        {
          "internalType": "uint256",
          "name": "tokenId",
          "type": "uint256"
        }
      ],
      "name": "ownerOf",
      "outputs": [
        {
          "internalType": "address",
          "name": "",
          "type": "address"
        }
      ],
      "stateMutability": "view",
      "type": "function",
      "constant": true
    },
    {
      "inputs": [
        {
          "internalType": "address",
          "name": "from",
          "type": "address"
        },
        {
          "internalType": "address",
          "name": "to",
          "type": "address"
        },
        {
          "internalType": "uint256",
          "name": "tokenId",
          "type": "uint256"
        }
      ],
      "name": "safeTransferFrom",
      "outputs": [],
      "stateMutability": "nonpayable",
      "type": "function"
    },
    {
      "inputs": [
        {
          "internalType": "address",
          "name": "from",
          "type": "address"
        },
        {
          "internalType": "address",
          "name": "to",
          "type": "address"
        },
        {
          "internalType": "uint256",
          "name": "tokenId",
          "type": "uint256"
        },
        {
          "internalType": "bytes",
          "name": "_data",
          "type": "bytes"
        }
      ],
      "name": "safeTransferFrom",
      "outputs": [],
      "stateMutability": "nonpayable",
      "type": "function"
    },
    {
      "inputs": [
        {
          "internalType": "address",
          "name": "operator",
          "type": "address"
        },
        {
          "internalType": "bool",
          "name": "approved",
          "type": "bool"
        }
      ],
      "name": "setApprovalForAll",
      "outputs": [],
      "stateMutability": "nonpayable",
      "type": "function"
    },
    {
      "inputs": [
        {
          "internalType": "bytes4",
          "name": "interfaceId",
          "type": "bytes4"
        }
      ],
      "name": "supportsInterface",
      "outputs": [
        {
          "internalType": "bool",
          "name": "",
          "type": "bool"
        }
      ],
      "stateMutability": "view",
      "type": "function",
      "constant": true
    },
    {
      "inputs": [],
      "name": "symbol",
      "outputs": [
        {
          "internalType": "string",
          "name": "",
          "type": "string"
        }
      ],
      "stateMutability": "view",
      "type": "function",
      "constant": true
    },
    {
      "inputs": [
        {
          "internalType": "uint256",
          "name": "tokenId",
          "type": "uint256"
        }
      ],
      "name": "tokenURI",
      "outputs": [
        {
          "internalType": "string",
          "name": "",
          "type": "string"
        }
      ],
      "stateMutability": "view",
      "type": "function",
      "constant": true
    },
    {
      "inputs": [
        {
          "internalType": "address",
          "name": "from",
          "type": "address"
        },
        {
          "internalType": "address",
          "name": "to",
          "type": "address"
        },
        {
          "internalType": "uint256",
          "name": "tokenId",
          "type": "uint256"
        }
      ],
      "name": "transferFrom",
      "outputs": [],
      "stateMutability": "nonpayable",
      "type": "function"
    },
    {
      "inputs": [],
      "name": "initialize",
      "outputs": [],
      "stateMutability": "nonpayable",
      "type": "function"
    },
    {
      "inputs": [
        {
          "internalType": "uint256",
          "name": "serviceId",
          "type": "uint256"
        }
      ],
      "name": "termURI",
      "outputs": [
        {
          "components": [
            {
              "internalType": "string",
              "name": "_termURI",
              "type": "string"
            },
            {
              "internalType": "string",
              "name": "_termHash",
              "type": "string"
            }
          ],
          "internalType": "struct ServiceDataLayout.ServiceCol",
          "name": "",
          "type": "tuple"
        }
      ],
      "stateMutability": "view",
      "type": "function",
      "constant": true
    },
    {
      "inputs": [
        {
          "internalType": "string",
          "name": "_uri",
          "type": "string"
        },
        {
          "internalType": "string",
          "name": "_hash",
          "type": "string"
        }
      ],
      "name": "mint",
      "outputs": [
        {
          "internalType": "uint256",
          "name": "",
          "type": "uint256"
        }
      ],
      "stateMutability": "nonpayable",
      "type": "function"
    }
  ],
  "bytecode": "0x608060405234801561001057600080fd5b506130d0806100206000396000f3fe608060405234801561001057600080fd5b50600436106101005760003560e01c80638129fc1c11610097578063b88d4fde11610066578063b88d4fde146102ab578063c87b56dd146102c7578063e985e9c5146102f7578063efece7161461032757610100565b80638129fc1c146102375780638aa0fdad1461024157806395d89b4114610271578063a22cb4651461028f57610100565b806323b872dd116100d357806323b872dd1461019f57806342842e0e146101bb5780636352211e146101d757806370a082311461020757610100565b806301ffc9a71461010557806306fdde0314610135578063081812fc14610153578063095ea7b314610183575b600080fd5b61011f600480360381019061011a9190611d31565b610357565b60405161012c9190611d79565b60405180910390f35b61013d610439565b60405161014a9190611e2d565b60405180910390f35b61016d60048036038101906101689190611e85565b6104cb565b60405161017a9190611ef3565b60405180910390f35b61019d60048036038101906101989190611f3a565b610550565b005b6101b960048036038101906101b49190611f7a565b610668565b005b6101d560048036038101906101d09190611f7a565b6106c8565b005b6101f160048036038101906101ec9190611e85565b6106e8565b6040516101fe9190611ef3565b60405180910390f35b610221600480360381019061021c9190611fcd565b61079a565b60405161022e9190612009565b60405180910390f35b61023f610852565b005b61025b60048036038101906102569190612089565b610952565b6040516102689190612009565b60405180910390f35b610279610a7f565b6040516102869190611e2d565b60405180910390f35b6102a960048036038101906102a49190612136565b610b11565b005b6102c560048036038101906102c091906122a6565b610b27565b005b6102e160048036038101906102dc9190611e85565b610b89565b6040516102ee9190611e2d565b60405180910390f35b610311600480360381019061030c9190612329565b610c30565b60405161031e9190611d79565b60405180910390f35b610341600480360381019061033c9190611e85565b610cc4565b60405161034e91906123f7565b60405180910390f35b60007f80ac58cd000000000000000000000000000000000000000000000000000000007bffffffffffffffffffffffffffffffffffffffffffffffffffffffff1916827bffffffffffffffffffffffffffffffffffffffffffffffffffffffff1916148061042257507f5b5e139f000000000000000000000000000000000000000000000000000000007bffffffffffffffffffffffffffffffffffffffffffffffffffffffff1916827bffffffffffffffffffffffffffffffffffffffffffffffffffffffff1916145b80610432575061043182610e15565b5b9050919050565b60606065805461044890612448565b80601f016020809104026020016040519081016040528092919081815260200182805461047490612448565b80156104c15780601f10610496576101008083540402835291602001916104c1565b820191906000526020600020905b8154815290600101906020018083116104a457829003601f168201915b5050505050905090565b60006104d682610e7f565b610515576040517f08c379a000000000000000000000000000000000000000000000000000000000815260040161050c906124ec565b60405180910390fd5b6069600083815260200190815260200160002060009054906101000a900473ffffffffffffffffffffffffffffffffffffffff169050919050565b600061055b826106e8565b90508073ffffffffffffffffffffffffffffffffffffffff168373ffffffffffffffffffffffffffffffffffffffff1614156105cc576040517f08c379a00000000000000000000000000000000000000000000000000000000081526004016105c39061257e565b60405180910390fd5b8073ffffffffffffffffffffffffffffffffffffffff166105eb610eeb565b73ffffffffffffffffffffffffffffffffffffffff16148061061a575061061981610614610eeb565b610c30565b5b610659576040517f08c379a000000000000000000000000000000000000000000000000000000000815260040161065090612610565b60405180910390fd5b6106638383610ef3565b505050565b610679610673610eeb565b82610fac565b6106b8576040517f08c379a00000000000000000000000000000000000000000000000000000000081526004016106af906126a2565b60405180910390fd5b6106c383838361108a565b505050565b6106e383838360405180602001604052806000815250610b27565b505050565b6000806067600084815260200190815260200160002060009054906101000a900473ffffffffffffffffffffffffffffffffffffffff169050600073ffffffffffffffffffffffffffffffffffffffff168173ffffffffffffffffffffffffffffffffffffffff161415610791576040517f08c379a000000000000000000000000000000000000000000000000000000000815260040161078890612734565b60405180910390fd5b80915050919050565b60008073ffffffffffffffffffffffffffffffffffffffff168273ffffffffffffffffffffffffffffffffffffffff16141561080b576040517f08c379a0000000000000000000000000000000000000000000000000000000008152600401610802906127c6565b60405180910390fd5b606860008373ffffffffffffffffffffffffffffffffffffffff1673ffffffffffffffffffffffffffffffffffffffff168152602001908152602001600020549050919050565b600061085e60016112f1565b90508015610882576001600060016101000a81548160ff0219169083151502179055505b6108f66040518060400160405280600d81526020017f5a696e6b617153657276696365000000000000000000000000000000000000008152506040518060400160405280600581526020017f5a4b5153520000000000000000000000000000000000000000000000000000008152506113e1565b801561094f5760008060016101000a81548160ff0219169083151502179055507f7f26b83ff96e1f2b6a682f133852f6798a09c465da95921460cefb384740249860016040516109469190612838565b60405180910390a15b50565b60006001609760008282546109679190612882565b9250508190555060006097549050610986610980610eeb565b8261143e565b604051806040016040528087878080601f016020809104026020016040519081016040528093929190818152602001838380828437600081840152601f19601f82011690508083019250505050505050815260200185858080601f016020809104026020016040519081016040528093929190818152602001838380828437600081840152601f19601f82011690508083019250505050505050815250609860008381526020019081526020016000206000820151816000019080519060200190610a52929190611c08565b506020820151816001019080519060200190610a6f929190611c08565b5090505080915050949350505050565b606060668054610a8e90612448565b80601f0160208091040260200160405190810160405280929190818152602001828054610aba90612448565b8015610b075780601f10610adc57610100808354040283529160200191610b07565b820191906000526020600020905b815481529060010190602001808311610aea57829003601f168201915b5050505050905090565b610b23610b1c610eeb565b838361145c565b5050565b610b38610b32610eeb565b83610fac565b610b77576040517f08c379a0000000000000000000000000000000000000000000000000000000008152600401610b6e906126a2565b60405180910390fd5b610b83848484846115c9565b50505050565b6060610b9482610e7f565b610bd3576040517f08c379a0000000000000000000000000000000000000000000000000000000008152600401610bca9061294a565b60405180910390fd5b6000610bdd611625565b90506000815111610bfd5760405180602001604052806000815250610c28565b80610c078461163c565b604051602001610c189291906129a6565b6040516020818303038152906040525b915050919050565b6000606a60008473ffffffffffffffffffffffffffffffffffffffff1673ffffffffffffffffffffffffffffffffffffffff16815260200190815260200160002060008373ffffffffffffffffffffffffffffffffffffffff1673ffffffffffffffffffffffffffffffffffffffff16815260200190815260200160002060009054906101000a900460ff16905092915050565b610ccc611c8e565b60986000838152602001908152602001600020604051806040016040529081600082018054610cfa90612448565b80601f0160208091040260200160405190810160405280929190818152602001828054610d2690612448565b8015610d735780601f10610d4857610100808354040283529160200191610d73565b820191906000526020600020905b815481529060010190602001808311610d5657829003601f168201915b50505050508152602001600182018054610d8c90612448565b80601f0160208091040260200160405190810160405280929190818152602001828054610db890612448565b8015610e055780601f10610dda57610100808354040283529160200191610e05565b820191906000526020600020905b815481529060010190602001808311610de857829003601f168201915b5050505050815250509050919050565b60007f01ffc9a7000000000000000000000000000000000000000000000000000000007bffffffffffffffffffffffffffffffffffffffffffffffffffffffff1916827bffffffffffffffffffffffffffffffffffffffffffffffffffffffff1916149050919050565b60008073ffffffffffffffffffffffffffffffffffffffff166067600084815260200190815260200160002060009054906101000a900473ffffffffffffffffffffffffffffffffffffffff1673ffffffffffffffffffffffffffffffffffffffff1614159050919050565b600033905090565b816069600083815260200190815260200160002060006101000a81548173ffffffffffffffffffffffffffffffffffffffff021916908373ffffffffffffffffffffffffffffffffffffffff160217905550808273ffffffffffffffffffffffffffffffffffffffff16610f66836106e8565b73ffffffffffffffffffffffffffffffffffffffff167f8c5be1e5ebec7d5bd14f71427d1e84f3dd0314c0f7b2291e5b200ac8c7c3b92560405160405180910390a45050565b6000610fb782610e7f565b610ff6576040517f08c379a0000000000000000000000000000000000000000000000000000000008152600401610fed90612a3c565b60405180910390fd5b6000611001836106e8565b90508073ffffffffffffffffffffffffffffffffffffffff168473ffffffffffffffffffffffffffffffffffffffff16148061104357506110428185610c30565b5b8061108157508373ffffffffffffffffffffffffffffffffffffffff16611069846104cb565b73ffffffffffffffffffffffffffffffffffffffff16145b91505092915050565b8273ffffffffffffffffffffffffffffffffffffffff166110aa826106e8565b73ffffffffffffffffffffffffffffffffffffffff1614611100576040517f08c379a00000000000000000000000000000000000000000000000000000000081526004016110f790612ace565b60405180910390fd5b600073ffffffffffffffffffffffffffffffffffffffff168273ffffffffffffffffffffffffffffffffffffffff161415611170576040517f08c379a000000000000000000000000000000000000000000000000000000000815260040161116790612b60565b60405180910390fd5b61117b83838361179d565b611186600082610ef3565b6001606860008573ffffffffffffffffffffffffffffffffffffffff1673ffffffffffffffffffffffffffffffffffffffff16815260200190815260200160002060008282546111d69190612b80565b925050819055506001606860008473ffffffffffffffffffffffffffffffffffffffff1673ffffffffffffffffffffffffffffffffffffffff168152602001908152602001600020600082825461122d9190612882565b92505081905550816067600083815260200190815260200160002060006101000a81548173ffffffffffffffffffffffffffffffffffffffff021916908373ffffffffffffffffffffffffffffffffffffffff160217905550808273ffffffffffffffffffffffffffffffffffffffff168473ffffffffffffffffffffffffffffffffffffffff167fddf252ad1be2c89b69c2b068fc378daa952ba7f163c4a11628f55a4df523b3ef60405160405180910390a46112ec8383836117a2565b505050565b60008060019054906101000a900460ff16156113685760018260ff16148015611320575061131e306117a7565b155b61135f576040517f08c379a000000000000000000000000000000000000000000000000000000000815260040161135690612c26565b60405180910390fd5b600090506113dc565b8160ff1660008054906101000a900460ff1660ff16106113bd576040517f08c379a00000000000000000000000000000000000000000000000000000000081526004016113b490612c26565b60405180910390fd5b816000806101000a81548160ff021916908360ff160217905550600190505b919050565b600060019054906101000a900460ff16611430576040517f08c379a000000000000000000000000000000000000000000000000000000000815260040161142790612cb8565b60405180910390fd5b61143a82826117ca565b5050565b61145882826040518060200160405280600081525061184b565b5050565b8173ffffffffffffffffffffffffffffffffffffffff168373ffffffffffffffffffffffffffffffffffffffff1614156114cb576040517f08c379a00000000000000000000000000000000000000000000000000000000081526004016114c290612d24565b60405180910390fd5b80606a60008573ffffffffffffffffffffffffffffffffffffffff1673ffffffffffffffffffffffffffffffffffffffff16815260200190815260200160002060008473ffffffffffffffffffffffffffffffffffffffff1673ffffffffffffffffffffffffffffffffffffffff16815260200190815260200160002060006101000a81548160ff0219169083151502179055508173ffffffffffffffffffffffffffffffffffffffff168373ffffffffffffffffffffffffffffffffffffffff167f17307eab39ab6107e8899845ad3d59bd9653f200f220920489ca2b5937696c31836040516115bc9190611d79565b60405180910390a3505050565b6115d484848461108a565b6115e0848484846118a6565b61161f576040517f08c379a000000000000000000000000000000000000000000000000000000000815260040161161690612db6565b60405180910390fd5b50505050565b606060405180602001604052806000815250905090565b60606000821415611684576040518060400160405280600181526020017f30000000000000000000000000000000000000000000000000000000000000008152509050611798565b600082905060005b600082146116b657808061169f90612dd6565b915050600a826116af9190612e4e565b915061168c565b60008167ffffffffffffffff8111156116d2576116d161217b565b5b6040519080825280601f01601f1916602001820160405280156117045781602001600182028036833780820191505090505b5090505b600085146117915760018261171d9190612b80565b9150600a8561172c9190612e7f565b60306117389190612882565b60f81b81838151811061174e5761174d612eb0565b5b60200101907effffffffffffffffffffffffffffffffffffffffffffffffffffffffffffff1916908160001a905350600a8561178a9190612e4e565b9450611708565b8093505050505b919050565b505050565b505050565b6000808273ffffffffffffffffffffffffffffffffffffffff163b119050919050565b600060019054906101000a900460ff16611819576040517f08c379a000000000000000000000000000000000000000000000000000000000815260040161181090612cb8565b60405180910390fd5b816065908051906020019061182f929190611c08565b508060669080519060200190611846929190611c08565b505050565b6118558383611a2e565b61186260008484846118a6565b6118a1576040517f08c379a000000000000000000000000000000000000000000000000000000000815260040161189890612db6565b60405180910390fd5b505050565b60006118c78473ffffffffffffffffffffffffffffffffffffffff166117a7565b15611a21578373ffffffffffffffffffffffffffffffffffffffff1663150b7a026118f0610eeb565b8786866040518563ffffffff1660e01b81526004016119129493929190612f34565b6020604051808303816000875af192505050801561194e57506040513d601f19601f8201168201806040525081019061194b9190612f95565b60015b6119d1573d806000811461197e576040519150601f19603f3d011682016040523d82523d6000602084013e611983565b606091505b506000815114156119c9576040517f08c379a00000000000000000000000000000000000000000000000000000000081526004016119c090612db6565b60405180910390fd5b805181602001fd5b63150b7a0260e01b7bffffffffffffffffffffffffffffffffffffffffffffffffffffffff1916817bffffffffffffffffffffffffffffffffffffffffffffffffffffffff191614915050611a26565b600190505b949350505050565b600073ffffffffffffffffffffffffffffffffffffffff168273ffffffffffffffffffffffffffffffffffffffff161415611a9e576040517f08c379a0000000000000000000000000000000000000000000000000000000008152600401611a959061300e565b60405180910390fd5b611aa781610e7f565b15611ae7576040517f08c379a0000000000000000000000000000000000000000000000000000000008152600401611ade9061307a565b60405180910390fd5b611af36000838361179d565b6001606860008473ffffffffffffffffffffffffffffffffffffffff1673ffffffffffffffffffffffffffffffffffffffff1681526020019081526020016000206000828254611b439190612882565b92505081905550816067600083815260200190815260200160002060006101000a81548173ffffffffffffffffffffffffffffffffffffffff021916908373ffffffffffffffffffffffffffffffffffffffff160217905550808273ffffffffffffffffffffffffffffffffffffffff16600073ffffffffffffffffffffffffffffffffffffffff167fddf252ad1be2c89b69c2b068fc378daa952ba7f163c4a11628f55a4df523b3ef60405160405180910390a4611c04600083836117a2565b5050565b828054611c1490612448565b90600052602060002090601f016020900481019282611c365760008555611c7d565b82601f10611c4f57805160ff1916838001178555611c7d565b82800160010185558215611c7d579182015b82811115611c7c578251825591602001919060010190611c61565b5b509050611c8a9190611ca8565b5090565b604051806040016040528060608152602001606081525090565b5b80821115611cc1576000816000905550600101611ca9565b5090565b6000604051905090565b600080fd5b600080fd5b60007fffffffff0000000000000000000000000000000000000000000000000000000082169050919050565b611d0e81611cd9565b8114611d1957600080fd5b50565b600081359050611d2b81611d05565b92915050565b600060208284031215611d4757611d46611ccf565b5b6000611d5584828501611d1c565b91505092915050565b60008115159050919050565b611d7381611d5e565b82525050565b6000602082019050611d8e6000830184611d6a565b92915050565b600081519050919050565b600082825260208201905092915050565b60005b83811015611dce578082015181840152602081019050611db3565b83811115611ddd576000848401525b50505050565b6000601f19601f8301169050919050565b6000611dff82611d94565b611e098185611d9f565b9350611e19818560208601611db0565b611e2281611de3565b840191505092915050565b60006020820190508181036000830152611e478184611df4565b905092915050565b6000819050919050565b611e6281611e4f565b8114611e6d57600080fd5b50565b600081359050611e7f81611e59565b92915050565b600060208284031215611e9b57611e9a611ccf565b5b6000611ea984828501611e70565b91505092915050565b600073ffffffffffffffffffffffffffffffffffffffff82169050919050565b6000611edd82611eb2565b9050919050565b611eed81611ed2565b82525050565b6000602082019050611f086000830184611ee4565b92915050565b611f1781611ed2565b8114611f2257600080fd5b50565b600081359050611f3481611f0e565b92915050565b60008060408385031215611f5157611f50611ccf565b5b6000611f5f85828601611f25565b9250506020611f7085828601611e70565b9150509250929050565b600080600060608486031215611f9357611f92611ccf565b5b6000611fa186828701611f25565b9350506020611fb286828701611f25565b9250506040611fc386828701611e70565b9150509250925092565b600060208284031215611fe357611fe2611ccf565b5b6000611ff184828501611f25565b91505092915050565b61200381611e4f565b82525050565b600060208201905061201e6000830184611ffa565b92915050565b600080fd5b600080fd5b600080fd5b60008083601f84011261204957612048612024565b5b8235905067ffffffffffffffff81111561206657612065612029565b5b6020830191508360018202830111156120825761208161202e565b5b9250929050565b600080600080604085870312156120a3576120a2611ccf565b5b600085013567ffffffffffffffff8111156120c1576120c0611cd4565b5b6120cd87828801612033565b9450945050602085013567ffffffffffffffff8111156120f0576120ef611cd4565b5b6120fc87828801612033565b925092505092959194509250565b61211381611d5e565b811461211e57600080fd5b50565b6000813590506121308161210a565b92915050565b6000806040838503121561214d5761214c611ccf565b5b600061215b85828601611f25565b925050602061216c85828601612121565b9150509250929050565b600080fd5b7f4e487b7100000000000000000000000000000000000000000000000000000000600052604160045260246000fd5b6121b382611de3565b810181811067ffffffffffffffff821117156121d2576121d161217b565b5b80604052505050565b60006121e5611cc5565b90506121f182826121aa565b919050565b600067ffffffffffffffff8211156122115761221061217b565b5b61221a82611de3565b9050602081019050919050565b82818337600083830152505050565b6000612249612244846121f6565b6121db565b90508281526020810184848401111561226557612264612176565b5b612270848285612227565b509392505050565b600082601f83011261228d5761228c612024565b5b813561229d848260208601612236565b91505092915050565b600080600080608085870312156122c0576122bf611ccf565b5b60006122ce87828801611f25565b94505060206122df87828801611f25565b93505060406122f087828801611e70565b925050606085013567ffffffffffffffff81111561231157612310611cd4565b5b61231d87828801612278565b91505092959194509250565b600080604083850312156123405761233f611ccf565b5b600061234e85828601611f25565b925050602061235f85828601611f25565b9150509250929050565b600082825260208201905092915050565b600061238582611d94565b61238f8185612369565b935061239f818560208601611db0565b6123a881611de3565b840191505092915050565b600060408301600083015184820360008601526123d0828261237a565b915050602083015184820360208601526123ea828261237a565b9150508091505092915050565b6000602082019050818103600083015261241181846123b3565b905092915050565b7f4e487b7100000000000000000000000000000000000000000000000000000000600052602260045260246000fd5b6000600282049050600182168061246057607f821691505b6020821081141561247457612473612419565b5b50919050565b7f4552433732313a20617070726f76656420717565727920666f72206e6f6e657860008201527f697374656e7420746f6b656e0000000000000000000000000000000000000000602082015250565b60006124d6602c83611d9f565b91506124e18261247a565b604082019050919050565b60006020820190508181036000830152612505816124c9565b9050919050565b7f4552433732313a20617070726f76616c20746f2063757272656e74206f776e6560008201527f7200000000000000000000000000000000000000000000000000000000000000602082015250565b6000612568602183611d9f565b91506125738261250c565b604082019050919050565b600060208201905081810360008301526125978161255b565b9050919050565b7f4552433732313a20617070726f76652063616c6c6572206973206e6f74206f7760008201527f6e6572206e6f7220617070726f76656420666f7220616c6c0000000000000000602082015250565b60006125fa603883611d9f565b91506126058261259e565b604082019050919050565b60006020820190508181036000830152612629816125ed565b9050919050565b7f4552433732313a207472616e736665722063616c6c6572206973206e6f74206f60008201527f776e6572206e6f7220617070726f766564000000000000000000000000000000602082015250565b600061268c603183611d9f565b915061269782612630565b604082019050919050565b600060208201905081810360008301526126bb8161267f565b9050919050565b7f4552433732313a206f776e657220717565727920666f72206e6f6e657869737460008201527f656e7420746f6b656e0000000000000000000000000000000000000000000000602082015250565b600061271e602983611d9f565b9150612729826126c2565b604082019050919050565b6000602082019050818103600083015261274d81612711565b9050919050565b7f4552433732313a2062616c616e636520717565727920666f7220746865207a6560008201527f726f206164647265737300000000000000000000000000000000000000000000602082015250565b60006127b0602a83611d9f565b91506127bb82612754565b604082019050919050565b600060208201905081810360008301526127df816127a3565b9050919050565b6000819050919050565b600060ff82169050919050565b6000819050919050565b600061282261281d612818846127e6565b6127fd565b6127f0565b9050919050565b61283281612807565b82525050565b600060208201905061284d6000830184612829565b92915050565b7f4e487b7100000000000000000000000000000000000000000000000000000000600052601160045260246000fd5b600061288d82611e4f565b915061289883611e4f565b9250827fffffffffffffffffffffffffffffffffffffffffffffffffffffffffffffffff038211156128cd576128cc612853565b5b828201905092915050565b7f4552433732314d657461646174613a2055524920717565727920666f72206e6f60008201527f6e6578697374656e7420746f6b656e0000000000000000000000000000000000602082015250565b6000612934602f83611d9f565b915061293f826128d8565b604082019050919050565b6000602082019050818103600083015261296381612927565b9050919050565b600081905092915050565b600061298082611d94565b61298a818561296a565b935061299a818560208601611db0565b80840191505092915050565b60006129b28285612975565b91506129be8284612975565b91508190509392505050565b7f4552433732313a206f70657261746f7220717565727920666f72206e6f6e657860008201527f697374656e7420746f6b656e0000000000000000000000000000000000000000602082015250565b6000612a26602c83611d9f565b9150612a31826129ca565b604082019050919050565b60006020820190508181036000830152612a5581612a19565b9050919050565b7f4552433732313a207472616e736665722066726f6d20696e636f72726563742060008201527f6f776e6572000000000000000000000000000000000000000000000000000000602082015250565b6000612ab8602583611d9f565b9150612ac382612a5c565b604082019050919050565b60006020820190508181036000830152612ae781612aab565b9050919050565b7f4552433732313a207472616e7366657220746f20746865207a65726f2061646460008201527f7265737300000000000000000000000000000000000000000000000000000000602082015250565b6000612b4a602483611d9f565b9150612b5582612aee565b604082019050919050565b60006020820190508181036000830152612b7981612b3d565b9050919050565b6000612b8b82611e4f565b9150612b9683611e4f565b925082821015612ba957612ba8612853565b5b828203905092915050565b7f496e697469616c697a61626c653a20636f6e747261637420697320616c72656160008201527f647920696e697469616c697a6564000000000000000000000000000000000000602082015250565b6000612c10602e83611d9f565b9150612c1b82612bb4565b604082019050919050565b60006020820190508181036000830152612c3f81612c03565b9050919050565b7f496e697469616c697a61626c653a20636f6e7472616374206973206e6f74206960008201527f6e697469616c697a696e67000000000000000000000000000000000000000000602082015250565b6000612ca2602b83611d9f565b9150612cad82612c46565b604082019050919050565b60006020820190508181036000830152612cd181612c95565b9050919050565b7f4552433732313a20617070726f766520746f2063616c6c657200000000000000600082015250565b6000612d0e601983611d9f565b9150612d1982612cd8565b602082019050919050565b60006020820190508181036000830152612d3d81612d01565b9050919050565b7f4552433732313a207472616e7366657220746f206e6f6e20455243373231526560008201527f63656976657220696d706c656d656e7465720000000000000000000000000000602082015250565b6000612da0603283611d9f565b9150612dab82612d44565b604082019050919050565b60006020820190508181036000830152612dcf81612d93565b9050919050565b6000612de182611e4f565b91507fffffffffffffffffffffffffffffffffffffffffffffffffffffffffffffffff821415612e1457612e13612853565b5b600182019050919050565b7f4e487b7100000000000000000000000000000000000000000000000000000000600052601260045260246000fd5b6000612e5982611e4f565b9150612e6483611e4f565b925082612e7457612e73612e1f565b5b828204905092915050565b6000612e8a82611e4f565b9150612e9583611e4f565b925082612ea557612ea4612e1f565b5b828206905092915050565b7f4e487b7100000000000000000000000000000000000000000000000000000000600052603260045260246000fd5b600081519050919050565b600082825260208201905092915050565b6000612f0682612edf565b612f108185612eea565b9350612f20818560208601611db0565b612f2981611de3565b840191505092915050565b6000608082019050612f496000830187611ee4565b612f566020830186611ee4565b612f636040830185611ffa565b8181036060830152612f758184612efb565b905095945050505050565b600081519050612f8f81611d05565b92915050565b600060208284031215612fab57612faa611ccf565b5b6000612fb984828501612f80565b91505092915050565b7f4552433732313a206d696e7420746f20746865207a65726f2061646472657373600082015250565b6000612ff8602083611d9f565b915061300382612fc2565b602082019050919050565b6000602082019050818103600083015261302781612feb565b9050919050565b7f4552433732313a20746f6b656e20616c7265616479206d696e74656400000000600082015250565b6000613064601c83611d9f565b915061306f8261302e565b602082019050919050565b6000602082019050818103600083015261309381613057565b905091905056fea264697066735822122030cce12375b4e1e2e720135a719665aae1c9f464739e2b783230a382e5ea62da64736f6c634300080b0033",
  "immutableReferences": {},
  "source": "// SPDX-License-Identifier: MIT\npragma solidity >=0.4.22 <0.9.0;\n\nimport \"@openzeppelin/contracts-upgradeable/token/ERC721/ERC721Upgradeable.sol\";\nimport \"@openzeppelin/contracts-upgradeable/proxy/utils/Initializable.sol\";\nimport \"@openzeppelin/contracts-upgradeable/utils/CountersUpgradeable.sol\";\nimport \"../data/ServiceDataLayout.sol\";\n\ncontract Service is Initializable, ERC721Upgradeable, ServiceDataLayout {\n    function initialize() initializer public {\n        __ERC721_init(\"ZinkaqService\", \"ZKQSR\");\n    }\n\n    function termURI(uint256 serviceId) public view returns (ServiceCol memory) {\n        return _metaDataUri[serviceId];\n    }\n\n    function mint(string calldata _uri, string calldata _hash) public returns (uint256) {\n        _currentId += 1;\n        uint256 newItemId = _currentId;\n        _safeMint(_msgSender(), newItemId);\n        _metaDataUri[newItemId] = ServiceCol(\n            _uri, _hash\n        );\n        return newItemId;\n    }\n}",
  "sourcePath": "/Users/swallow/hoby/zinkaq/blockchain/contracts/v1/Service.sol",
  "compiler": {
    "name": "solc",
    "version": "0.8.11+commit.d7f03943.Emscripten.clang"
  },
  "schemaVersion": "3.4.5",
  "updatedAt": "2022-07-30T05:59:47.116Z",
  "networkType": "ethereum",
  "devdoc": {
    "kind": "dev",
    "methods": {
      "approve(address,uint256)": {
        "details": "See {IERC721-approve}."
      },
      "balanceOf(address)": {
        "details": "See {IERC721-balanceOf}."
      },
      "getApproved(uint256)": {
        "details": "See {IERC721-getApproved}."
      },
      "isApprovedForAll(address,address)": {
        "details": "See {IERC721-isApprovedForAll}."
      },
      "name()": {
        "details": "See {IERC721Metadata-name}."
      },
      "ownerOf(uint256)": {
        "details": "See {IERC721-ownerOf}."
      },
      "safeTransferFrom(address,address,uint256)": {
        "details": "See {IERC721-safeTransferFrom}."
      },
      "safeTransferFrom(address,address,uint256,bytes)": {
        "details": "See {IERC721-safeTransferFrom}."
      },
      "setApprovalForAll(address,bool)": {
        "details": "See {IERC721-setApprovalForAll}."
      },
      "supportsInterface(bytes4)": {
        "details": "See {IERC165-supportsInterface}."
      },
      "symbol()": {
        "details": "See {IERC721Metadata-symbol}."
      },
      "tokenURI(uint256)": {
        "details": "See {IERC721Metadata-tokenURI}."
      },
      "transferFrom(address,address,uint256)": {
        "details": "See {IERC721-transferFrom}."
      }
    },
    "version": 1
  },
  "userdoc": {
    "kind": "user",
    "methods": {},
    "version": 1
  }
}