{
  "contractName": "Zinkaq",
  "abi": [
    {
      "anonymous": false,
      "inputs": [
        {
          "indexed": true,
          "internalType": "address",
          "name": "owner",
          "type": "address"
        },
        {
          "indexed": true,
          "internalType": "address",
          "name": "approved",
          "type": "address"
        },
        {
          "indexed": true,
          "internalType": "uint256",
          "name": "tokenId",
          "type": "uint256"
        }
      ],
      "name": "Approval",
      "type": "event"
    },
    {
      "anonymous": false,
      "inputs": [
        {
          "indexed": true,
          "internalType": "address",
          "name": "owner",
          "type": "address"
        },
        {
          "indexed": true,
          "internalType": "address",
          "name": "operator",
          "type": "address"
        },
        {
          "indexed": false,
          "internalType": "bool",
          "name": "approved",
          "type": "bool"
        }
      ],
      "name": "ApprovalForAll",
      "type": "event"
    },
    {
      "anonymous": false,
      "inputs": [
        {
          "indexed": false,
          "internalType": "uint8",
          "name": "version",
          "type": "uint8"
        }
      ],
      "name": "Initialized",
      "type": "event"
    },
    {
      "anonymous": false,
      "inputs": [
        {
          "indexed": true,
          "internalType": "address",
          "name": "from",
          "type": "address"
        },
        {
          "indexed": true,
          "internalType": "address",
          "name": "to",
          "type": "address"
        },
        {
          "indexed": true,
          "internalType": "uint256",
          "name": "tokenId",
          "type": "uint256"
        }
      ],
      "name": "Transfer",
      "type": "event"
    },
    {
      "inputs": [
        {
          "internalType": "address",
          "name": "to",
          "type": "address"
        },
        {
          "internalType": "uint256",
          "name": "tokenId",
          "type": "uint256"
        }
      ],
      "name": "approve",
      "outputs": [],
      "stateMutability": "nonpayable",
      "type": "function"
    },
    {
      "inputs": [
        {
          "internalType": "address",
          "name": "owner",
          "type": "address"
        }
      ],
      "name": "balanceOf",
      "outputs": [
        {
          "internalType": "uint256",
          "name": "",
          "type": "uint256"
        }
      ],
      "stateMutability": "view",
      "type": "function"
    },
    {
      "inputs": [
        {
          "internalType": "uint256",
          "name": "tokenId",
          "type": "uint256"
        }
      ],
      "name": "getApproved",
      "outputs": [
        {
          "internalType": "address",
          "name": "",
          "type": "address"
        }
      ],
      "stateMutability": "view",
      "type": "function"
    },
    {
      "inputs": [
        {
          "internalType": "address",
          "name": "owner",
          "type": "address"
        },
        {
          "internalType": "address",
          "name": "operator",
          "type": "address"
        }
      ],
      "name": "isApprovedForAll",
      "outputs": [
        {
          "internalType": "bool",
          "name": "",
          "type": "bool"
        }
      ],
      "stateMutability": "view",
      "type": "function"
    },
    {
      "inputs": [],
      "name": "name",
      "outputs": [
        {
          "internalType": "string",
          "name": "",
          "type": "string"
        }
      ],
      "stateMutability": "view",
      "type": "function"
    },
    {
      "inputs": [
        {
          "internalType": "uint256",
          "name": "tokenId",
          "type": "uint256"
        }
      ],
      "name": "ownerOf",
      "outputs": [
        {
          "internalType": "address",
          "name": "",
          "type": "address"
        }
      ],
      "stateMutability": "view",
      "type": "function"
    },
    {
      "inputs": [
        {
          "internalType": "address",
          "name": "from",
          "type": "address"
        },
        {
          "internalType": "address",
          "name": "to",
          "type": "address"
        },
        {
          "internalType": "uint256",
          "name": "tokenId",
          "type": "uint256"
        }
      ],
      "name": "safeTransferFrom",
      "outputs": [],
      "stateMutability": "nonpayable",
      "type": "function"
    },
    {
      "inputs": [
        {
          "internalType": "address",
          "name": "from",
          "type": "address"
        },
        {
          "internalType": "address",
          "name": "to",
          "type": "address"
        },
        {
          "internalType": "uint256",
          "name": "tokenId",
          "type": "uint256"
        },
        {
          "internalType": "bytes",
          "name": "_data",
          "type": "bytes"
        }
      ],
      "name": "safeTransferFrom",
      "outputs": [],
      "stateMutability": "nonpayable",
      "type": "function"
    },
    {
      "inputs": [
        {
          "internalType": "address",
          "name": "operator",
          "type": "address"
        },
        {
          "internalType": "bool",
          "name": "approved",
          "type": "bool"
        }
      ],
      "name": "setApprovalForAll",
      "outputs": [],
      "stateMutability": "nonpayable",
      "type": "function"
    },
    {
      "inputs": [
        {
          "internalType": "bytes4",
          "name": "interfaceId",
          "type": "bytes4"
        }
      ],
      "name": "supportsInterface",
      "outputs": [
        {
          "internalType": "bool",
          "name": "",
          "type": "bool"
        }
      ],
      "stateMutability": "view",
      "type": "function"
    },
    {
      "inputs": [],
      "name": "symbol",
      "outputs": [
        {
          "internalType": "string",
          "name": "",
          "type": "string"
        }
      ],
      "stateMutability": "view",
      "type": "function"
    },
    {
      "inputs": [
        {
          "internalType": "uint256",
          "name": "index",
          "type": "uint256"
        }
      ],
      "name": "tokenByIndex",
      "outputs": [
        {
          "internalType": "uint256",
          "name": "",
          "type": "uint256"
        }
      ],
      "stateMutability": "view",
      "type": "function"
    },
    {
      "inputs": [
        {
          "internalType": "address",
          "name": "owner",
          "type": "address"
        },
        {
          "internalType": "uint256",
          "name": "index",
          "type": "uint256"
        }
      ],
      "name": "tokenOfOwnerByIndex",
      "outputs": [
        {
          "internalType": "uint256",
          "name": "",
          "type": "uint256"
        }
      ],
      "stateMutability": "view",
      "type": "function"
    },
    {
      "inputs": [],
      "name": "totalSupply",
      "outputs": [
        {
          "internalType": "uint256",
          "name": "",
          "type": "uint256"
        }
      ],
      "stateMutability": "view",
      "type": "function"
    },
    {
      "inputs": [
        {
          "internalType": "address",
          "name": "from",
          "type": "address"
        },
        {
          "internalType": "address",
          "name": "to",
          "type": "address"
        },
        {
          "internalType": "uint256",
          "name": "tokenId",
          "type": "uint256"
        }
      ],
      "name": "transferFrom",
      "outputs": [],
      "stateMutability": "nonpayable",
      "type": "function"
    },
    {
      "inputs": [],
      "name": "initialize",
      "outputs": [],
      "stateMutability": "nonpayable",
      "type": "function"
    },
    {
      "inputs": [
        {
          "internalType": "uint256",
          "name": "tokenId",
          "type": "uint256"
        }
      ],
      "name": "tokenURI",
      "outputs": [
        {
          "internalType": "string",
          "name": "",
          "type": "string"
        }
      ],
      "stateMutability": "view",
      "type": "function"
    },
    {
      "inputs": [
        {
          "internalType": "string",
          "name": "_uri",
          "type": "string"
        }
      ],
      "name": "mint",
      "outputs": [
        {
          "internalType": "uint256",
          "name": "",
          "type": "uint256"
        }
      ],
      "stateMutability": "nonpayable",
      "type": "function"
    }
  ],
  "bytecode": "0x608060405234801561001057600080fd5b50613263806100206000396000f3fe608060405234801561001057600080fd5b50600436106101165760003560e01c80636352211e116100a2578063a22cb46511610071578063a22cb465146102f3578063b88d4fde1461030f578063c87b56dd1461032b578063d85d3d271461035b578063e985e9c51461038b57610116565b80636352211e1461026b57806370a082311461029b5780638129fc1c146102cb57806395d89b41146102d557610116565b806318160ddd116100e957806318160ddd146101b557806323b872dd146101d35780632f745c59146101ef57806342842e0e1461021f5780634f6ccce71461023b57610116565b806301ffc9a71461011b57806306fdde031461014b578063081812fc14610169578063095ea7b314610199575b600080fd5b61013560048036038101906101309190612021565b6103bb565b6040516101429190612069565b60405180910390f35b610153610435565b604051610160919061211d565b60405180910390f35b610183600480360381019061017e9190612175565b6104c7565b60405161019091906121e3565b60405180910390f35b6101b360048036038101906101ae919061222a565b61054c565b005b6101bd610664565b6040516101ca9190612279565b60405180910390f35b6101ed60048036038101906101e89190612294565b610671565b005b6102096004803603810190610204919061222a565b6106d1565b6040516102169190612279565b60405180910390f35b61023960048036038101906102349190612294565b610776565b005b61025560048036038101906102509190612175565b610796565b6040516102629190612279565b60405180910390f35b61028560048036038101906102809190612175565b610807565b60405161029291906121e3565b60405180910390f35b6102b560048036038101906102b091906122e7565b6108b9565b6040516102c29190612279565b60405180910390f35b6102d3610971565b005b6102dd610a71565b6040516102ea919061211d565b60405180910390f35b61030d60048036038101906103089190612340565b610b03565b005b610329600480360381019061032491906124b5565b610b19565b005b61034560048036038101906103409190612175565b610b7b565b604051610352919061211d565b60405180910390f35b61037560048036038101906103709190612598565b610c20565b6040516103829190612279565b60405180910390f35b6103a560048036038101906103a091906125e5565b610c81565b6040516103b29190612069565b60405180910390f35b60007f780e9d63000000000000000000000000000000000000000000000000000000007bffffffffffffffffffffffffffffffffffffffffffffffffffffffff1916827bffffffffffffffffffffffffffffffffffffffffffffffffffffffff1916148061042e575061042d82610d15565b5b9050919050565b60606065805461044490612654565b80601f016020809104026020016040519081016040528092919081815260200182805461047090612654565b80156104bd5780601f10610492576101008083540402835291602001916104bd565b820191906000526020600020905b8154815290600101906020018083116104a057829003601f168201915b5050505050905090565b60006104d282610df7565b610511576040517f08c379a0000000000000000000000000000000000000000000000000000000008152600401610508906126f8565b60405180910390fd5b6069600083815260200190815260200160002060009054906101000a900473ffffffffffffffffffffffffffffffffffffffff169050919050565b600061055782610807565b90508073ffffffffffffffffffffffffffffffffffffffff168373ffffffffffffffffffffffffffffffffffffffff1614156105c8576040517f08c379a00000000000000000000000000000000000000000000000000000000081526004016105bf9061278a565b60405180910390fd5b8073ffffffffffffffffffffffffffffffffffffffff166105e7610e63565b73ffffffffffffffffffffffffffffffffffffffff161480610616575061061581610610610e63565b610c81565b5b610655576040517f08c379a000000000000000000000000000000000000000000000000000000000815260040161064c9061281c565b60405180910390fd5b61065f8383610e6b565b505050565b6000609980549050905090565b61068261067c610e63565b82610f24565b6106c1576040517f08c379a00000000000000000000000000000000000000000000000000000000081526004016106b8906128ae565b60405180910390fd5b6106cc838383611002565b505050565b60006106dc836108b9565b821061071d576040517f08c379a000000000000000000000000000000000000000000000000000000000815260040161071490612940565b60405180910390fd5b609760008473ffffffffffffffffffffffffffffffffffffffff1673ffffffffffffffffffffffffffffffffffffffff168152602001908152602001600020600083815260200190815260200160002054905092915050565b61079183838360405180602001604052806000815250610b19565b505050565b60006107a0610664565b82106107e1576040517f08c379a00000000000000000000000000000000000000000000000000000000081526004016107d8906129d2565b60405180910390fd5b609982815481106107f5576107f46129f2565b5b90600052602060002001549050919050565b6000806067600084815260200190815260200160002060009054906101000a900473ffffffffffffffffffffffffffffffffffffffff169050600073ffffffffffffffffffffffffffffffffffffffff168173ffffffffffffffffffffffffffffffffffffffff1614156108b0576040517f08c379a00000000000000000000000000000000000000000000000000000000081526004016108a790612a93565b60405180910390fd5b80915050919050565b60008073ffffffffffffffffffffffffffffffffffffffff168273ffffffffffffffffffffffffffffffffffffffff16141561092a576040517f08c379a000000000000000000000000000000000000000000000000000000000815260040161092190612b25565b60405180910390fd5b606860008373ffffffffffffffffffffffffffffffffffffffff1673ffffffffffffffffffffffffffffffffffffffff168152602001908152602001600020549050919050565b600061097d6001611269565b905080156109a1576001600060016101000a81548160ff0219169083151502179055505b610a156040518060400160405280600681526020017f5a696e6b617100000000000000000000000000000000000000000000000000008152506040518060400160405280600381526020017f5a4b510000000000000000000000000000000000000000000000000000000000815250611359565b8015610a6e5760008060016101000a81548160ff0219169083151502179055507f7f26b83ff96e1f2b6a682f133852f6798a09c465da95921460cefb38474024986001604051610a659190612b97565b60405180910390a15b50565b606060668054610a8090612654565b80601f0160208091040260200160405190810160405280929190818152602001828054610aac90612654565b8015610af95780601f10610ace57610100808354040283529160200191610af9565b820191906000526020600020905b815481529060010190602001808311610adc57829003601f168201915b5050505050905090565b610b15610b0e610e63565b83836113b6565b5050565b610b2a610b24610e63565b83610f24565b610b69576040517f08c379a0000000000000000000000000000000000000000000000000000000008152600401610b60906128ae565b60405180910390fd5b610b7584848484611523565b50505050565b606060c960008381526020019081526020016000208054610b9b90612654565b80601f0160208091040260200160405190810160405280929190818152602001828054610bc790612654565b8015610c145780601f10610be957610100808354040283529160200191610c14565b820191906000526020600020905b815481529060010190602001808311610bf757829003601f168201915b50505050509050919050565b6000600160ca6000828254610c359190612be1565b92505081905550600060ca549050610c54610c4e610e63565b8261157f565b838360c960008481526020019081526020016000209190610c76929190611e8c565b508091505092915050565b6000606a60008473ffffffffffffffffffffffffffffffffffffffff1673ffffffffffffffffffffffffffffffffffffffff16815260200190815260200160002060008373ffffffffffffffffffffffffffffffffffffffff1673ffffffffffffffffffffffffffffffffffffffff16815260200190815260200160002060009054906101000a900460ff16905092915050565b60007f80ac58cd000000000000000000000000000000000000000000000000000000007bffffffffffffffffffffffffffffffffffffffffffffffffffffffff1916827bffffffffffffffffffffffffffffffffffffffffffffffffffffffff19161480610de057507f5b5e139f000000000000000000000000000000000000000000000000000000007bffffffffffffffffffffffffffffffffffffffffffffffffffffffff1916827bffffffffffffffffffffffffffffffffffffffffffffffffffffffff1916145b80610df05750610def8261159d565b5b9050919050565b60008073ffffffffffffffffffffffffffffffffffffffff166067600084815260200190815260200160002060009054906101000a900473ffffffffffffffffffffffffffffffffffffffff1673ffffffffffffffffffffffffffffffffffffffff1614159050919050565b600033905090565b816069600083815260200190815260200160002060006101000a81548173ffffffffffffffffffffffffffffffffffffffff021916908373ffffffffffffffffffffffffffffffffffffffff160217905550808273ffffffffffffffffffffffffffffffffffffffff16610ede83610807565b73ffffffffffffffffffffffffffffffffffffffff167f8c5be1e5ebec7d5bd14f71427d1e84f3dd0314c0f7b2291e5b200ac8c7c3b92560405160405180910390a45050565b6000610f2f82610df7565b610f6e576040517f08c379a0000000000000000000000000000000000000000000000000000000008152600401610f6590612ca9565b60405180910390fd5b6000610f7983610807565b90508073ffffffffffffffffffffffffffffffffffffffff168473ffffffffffffffffffffffffffffffffffffffff161480610fbb5750610fba8185610c81565b5b80610ff957508373ffffffffffffffffffffffffffffffffffffffff16610fe1846104c7565b73ffffffffffffffffffffffffffffffffffffffff16145b91505092915050565b8273ffffffffffffffffffffffffffffffffffffffff1661102282610807565b73ffffffffffffffffffffffffffffffffffffffff1614611078576040517f08c379a000000000000000000000000000000000000000000000000000000000815260040161106f90612d3b565b60405180910390fd5b600073ffffffffffffffffffffffffffffffffffffffff168273ffffffffffffffffffffffffffffffffffffffff1614156110e8576040517f08c379a00000000000000000000000000000000000000000000000000000000081526004016110df90612dcd565b60405180910390fd5b6110f3838383611607565b6110fe600082610e6b565b6001606860008573ffffffffffffffffffffffffffffffffffffffff1673ffffffffffffffffffffffffffffffffffffffff168152602001908152602001600020600082825461114e9190612ded565b925050819055506001606860008473ffffffffffffffffffffffffffffffffffffffff1673ffffffffffffffffffffffffffffffffffffffff16815260200190815260200160002060008282546111a59190612be1565b92505081905550816067600083815260200190815260200160002060006101000a81548173ffffffffffffffffffffffffffffffffffffffff021916908373ffffffffffffffffffffffffffffffffffffffff160217905550808273ffffffffffffffffffffffffffffffffffffffff168473ffffffffffffffffffffffffffffffffffffffff167fddf252ad1be2c89b69c2b068fc378daa952ba7f163c4a11628f55a4df523b3ef60405160405180910390a461126483838361171b565b505050565b60008060019054906101000a900460ff16156112e05760018260ff16148015611298575061129630611720565b155b6112d7576040517f08c379a00000000000000000000000000000000000000000000000000000000081526004016112ce90612e93565b60405180910390fd5b60009050611354565b8160ff1660008054906101000a900460ff1660ff1610611335576040517f08c379a000000000000000000000000000000000000000000000000000000000815260040161132c90612e93565b60405180910390fd5b816000806101000a81548160ff021916908360ff160217905550600190505b919050565b600060019054906101000a900460ff166113a8576040517f08c379a000000000000000000000000000000000000000000000000000000000815260040161139f90612f25565b60405180910390fd5b6113b28282611743565b5050565b8173ffffffffffffffffffffffffffffffffffffffff168373ffffffffffffffffffffffffffffffffffffffff161415611425576040517f08c379a000000000000000000000000000000000000000000000000000000000815260040161141c90612f91565b60405180910390fd5b80606a60008573ffffffffffffffffffffffffffffffffffffffff1673ffffffffffffffffffffffffffffffffffffffff16815260200190815260200160002060008473ffffffffffffffffffffffffffffffffffffffff1673ffffffffffffffffffffffffffffffffffffffff16815260200190815260200160002060006101000a81548160ff0219169083151502179055508173ffffffffffffffffffffffffffffffffffffffff168373ffffffffffffffffffffffffffffffffffffffff167f17307eab39ab6107e8899845ad3d59bd9653f200f220920489ca2b5937696c31836040516115169190612069565b60405180910390a3505050565b61152e848484611002565b61153a848484846117c4565b611579576040517f08c379a000000000000000000000000000000000000000000000000000000000815260040161157090613023565b60405180910390fd5b50505050565b61159982826040518060200160405280600081525061194c565b5050565b60007f01ffc9a7000000000000000000000000000000000000000000000000000000007bffffffffffffffffffffffffffffffffffffffffffffffffffffffff1916827bffffffffffffffffffffffffffffffffffffffffffffffffffffffff1916149050919050565b6116128383836119a7565b600073ffffffffffffffffffffffffffffffffffffffff168373ffffffffffffffffffffffffffffffffffffffff16141561165557611650816119ac565b611694565b8173ffffffffffffffffffffffffffffffffffffffff168373ffffffffffffffffffffffffffffffffffffffff16146116935761169283826119f5565b5b5b600073ffffffffffffffffffffffffffffffffffffffff168273ffffffffffffffffffffffffffffffffffffffff1614156116d7576116d281611b62565b611716565b8273ffffffffffffffffffffffffffffffffffffffff168273ffffffffffffffffffffffffffffffffffffffff1614611715576117148282611c33565b5b5b505050565b505050565b6000808273ffffffffffffffffffffffffffffffffffffffff163b119050919050565b600060019054906101000a900460ff16611792576040517f08c379a000000000000000000000000000000000000000000000000000000000815260040161178990612f25565b60405180910390fd5b81606590805190602001906117a8929190611f12565b5080606690805190602001906117bf929190611f12565b505050565b60006117e58473ffffffffffffffffffffffffffffffffffffffff16611720565b1561193f578373ffffffffffffffffffffffffffffffffffffffff1663150b7a0261180e610e63565b8786866040518563ffffffff1660e01b81526004016118309493929190613098565b6020604051808303816000875af192505050801561186c57506040513d601f19601f8201168201806040525081019061186991906130f9565b60015b6118ef573d806000811461189c576040519150601f19603f3d011682016040523d82523d6000602084013e6118a1565b606091505b506000815114156118e7576040517f08c379a00000000000000000000000000000000000000000000000000000000081526004016118de90613023565b60405180910390fd5b805181602001fd5b63150b7a0260e01b7bffffffffffffffffffffffffffffffffffffffffffffffffffffffff1916817bffffffffffffffffffffffffffffffffffffffffffffffffffffffff191614915050611944565b600190505b949350505050565b6119568383611cb2565b61196360008484846117c4565b6119a2576040517f08c379a000000000000000000000000000000000000000000000000000000000815260040161199990613023565b60405180910390fd5b505050565b505050565b609980549050609a600083815260200190815260200160002081905550609981908060018154018082558091505060019003906000526020600020016000909190919091505550565b60006001611a02846108b9565b611a0c9190612ded565b9050600060986000848152602001908152602001600020549050818114611af1576000609760008673ffffffffffffffffffffffffffffffffffffffff1673ffffffffffffffffffffffffffffffffffffffff168152602001908152602001600020600084815260200190815260200160002054905080609760008773ffffffffffffffffffffffffffffffffffffffff1673ffffffffffffffffffffffffffffffffffffffff168152602001908152602001600020600084815260200190815260200160002081905550816098600083815260200190815260200160002081905550505b6098600084815260200190815260200160002060009055609760008573ffffffffffffffffffffffffffffffffffffffff1673ffffffffffffffffffffffffffffffffffffffff16815260200190815260200160002060008381526020019081526020016000206000905550505050565b60006001609980549050611b769190612ded565b90506000609a6000848152602001908152602001600020549050600060998381548110611ba657611ba56129f2565b5b906000526020600020015490508060998381548110611bc857611bc76129f2565b5b906000526020600020018190555081609a600083815260200190815260200160002081905550609a6000858152602001908152602001600020600090556099805480611c1757611c16613126565b5b6001900381819060005260206000200160009055905550505050565b6000611c3e836108b9565b905081609760008573ffffffffffffffffffffffffffffffffffffffff1673ffffffffffffffffffffffffffffffffffffffff168152602001908152602001600020600083815260200190815260200160002081905550806098600084815260200190815260200160002081905550505050565b600073ffffffffffffffffffffffffffffffffffffffff168273ffffffffffffffffffffffffffffffffffffffff161415611d22576040517f08c379a0000000000000000000000000000000000000000000000000000000008152600401611d19906131a1565b60405180910390fd5b611d2b81610df7565b15611d6b576040517f08c379a0000000000000000000000000000000000000000000000000000000008152600401611d629061320d565b60405180910390fd5b611d7760008383611607565b6001606860008473ffffffffffffffffffffffffffffffffffffffff1673ffffffffffffffffffffffffffffffffffffffff1681526020019081526020016000206000828254611dc79190612be1565b92505081905550816067600083815260200190815260200160002060006101000a81548173ffffffffffffffffffffffffffffffffffffffff021916908373ffffffffffffffffffffffffffffffffffffffff160217905550808273ffffffffffffffffffffffffffffffffffffffff16600073ffffffffffffffffffffffffffffffffffffffff167fddf252ad1be2c89b69c2b068fc378daa952ba7f163c4a11628f55a4df523b3ef60405160405180910390a4611e886000838361171b565b5050565b828054611e9890612654565b90600052602060002090601f016020900481019282611eba5760008555611f01565b82601f10611ed357803560ff1916838001178555611f01565b82800160010185558215611f01579182015b82811115611f00578235825591602001919060010190611ee5565b5b509050611f0e9190611f98565b5090565b828054611f1e90612654565b90600052602060002090601f016020900481019282611f405760008555611f87565b82601f10611f5957805160ff1916838001178555611f87565b82800160010185558215611f87579182015b82811115611f86578251825591602001919060010190611f6b565b5b509050611f949190611f98565b5090565b5b80821115611fb1576000816000905550600101611f99565b5090565b6000604051905090565b600080fd5b600080fd5b60007fffffffff0000000000000000000000000000000000000000000000000000000082169050919050565b611ffe81611fc9565b811461200957600080fd5b50565b60008135905061201b81611ff5565b92915050565b60006020828403121561203757612036611fbf565b5b60006120458482850161200c565b91505092915050565b60008115159050919050565b6120638161204e565b82525050565b600060208201905061207e600083018461205a565b92915050565b600081519050919050565b600082825260208201905092915050565b60005b838110156120be5780820151818401526020810190506120a3565b838111156120cd576000848401525b50505050565b6000601f19601f8301169050919050565b60006120ef82612084565b6120f9818561208f565b93506121098185602086016120a0565b612112816120d3565b840191505092915050565b6000602082019050818103600083015261213781846120e4565b905092915050565b6000819050919050565b6121528161213f565b811461215d57600080fd5b50565b60008135905061216f81612149565b92915050565b60006020828403121561218b5761218a611fbf565b5b600061219984828501612160565b91505092915050565b600073ffffffffffffffffffffffffffffffffffffffff82169050919050565b60006121cd826121a2565b9050919050565b6121dd816121c2565b82525050565b60006020820190506121f860008301846121d4565b92915050565b612207816121c2565b811461221257600080fd5b50565b600081359050612224816121fe565b92915050565b6000806040838503121561224157612240611fbf565b5b600061224f85828601612215565b925050602061226085828601612160565b9150509250929050565b6122738161213f565b82525050565b600060208201905061228e600083018461226a565b92915050565b6000806000606084860312156122ad576122ac611fbf565b5b60006122bb86828701612215565b93505060206122cc86828701612215565b92505060406122dd86828701612160565b9150509250925092565b6000602082840312156122fd576122fc611fbf565b5b600061230b84828501612215565b91505092915050565b61231d8161204e565b811461232857600080fd5b50565b60008135905061233a81612314565b92915050565b6000806040838503121561235757612356611fbf565b5b600061236585828601612215565b92505060206123768582860161232b565b9150509250929050565b600080fd5b600080fd5b7f4e487b7100000000000000000000000000000000000000000000000000000000600052604160045260246000fd5b6123c2826120d3565b810181811067ffffffffffffffff821117156123e1576123e061238a565b5b80604052505050565b60006123f4611fb5565b905061240082826123b9565b919050565b600067ffffffffffffffff8211156124205761241f61238a565b5b612429826120d3565b9050602081019050919050565b82818337600083830152505050565b600061245861245384612405565b6123ea565b90508281526020810184848401111561247457612473612385565b5b61247f848285612436565b509392505050565b600082601f83011261249c5761249b612380565b5b81356124ac848260208601612445565b91505092915050565b600080600080608085870312156124cf576124ce611fbf565b5b60006124dd87828801612215565b94505060206124ee87828801612215565b93505060406124ff87828801612160565b925050606085013567ffffffffffffffff8111156125205761251f611fc4565b5b61252c87828801612487565b91505092959194509250565b600080fd5b600080fd5b60008083601f84011261255857612557612380565b5b8235905067ffffffffffffffff81111561257557612574612538565b5b6020830191508360018202830111156125915761259061253d565b5b9250929050565b600080602083850312156125af576125ae611fbf565b5b600083013567ffffffffffffffff8111156125cd576125cc611fc4565b5b6125d985828601612542565b92509250509250929050565b600080604083850312156125fc576125fb611fbf565b5b600061260a85828601612215565b925050602061261b85828601612215565b9150509250929050565b7f4e487b7100000000000000000000000000000000000000000000000000000000600052602260045260246000fd5b6000600282049050600182168061266c57607f821691505b602082108114156126805761267f612625565b5b50919050565b7f4552433732313a20617070726f76656420717565727920666f72206e6f6e657860008201527f697374656e7420746f6b656e0000000000000000000000000000000000000000602082015250565b60006126e2602c8361208f565b91506126ed82612686565b604082019050919050565b60006020820190508181036000830152612711816126d5565b9050919050565b7f4552433732313a20617070726f76616c20746f2063757272656e74206f776e6560008201527f7200000000000000000000000000000000000000000000000000000000000000602082015250565b600061277460218361208f565b915061277f82612718565b604082019050919050565b600060208201905081810360008301526127a381612767565b9050919050565b7f4552433732313a20617070726f76652063616c6c6572206973206e6f74206f7760008201527f6e6572206e6f7220617070726f76656420666f7220616c6c0000000000000000602082015250565b600061280660388361208f565b9150612811826127aa565b604082019050919050565b60006020820190508181036000830152612835816127f9565b9050919050565b7f4552433732313a207472616e736665722063616c6c6572206973206e6f74206f60008201527f776e6572206e6f7220617070726f766564000000000000000000000000000000602082015250565b600061289860318361208f565b91506128a38261283c565b604082019050919050565b600060208201905081810360008301526128c78161288b565b9050919050565b7f455243373231456e756d657261626c653a206f776e657220696e646578206f7560008201527f74206f6620626f756e6473000000000000000000000000000000000000000000602082015250565b600061292a602b8361208f565b9150612935826128ce565b604082019050919050565b600060208201905081810360008301526129598161291d565b9050919050565b7f455243373231456e756d657261626c653a20676c6f62616c20696e646578206f60008201527f7574206f6620626f756e64730000000000000000000000000000000000000000602082015250565b60006129bc602c8361208f565b91506129c782612960565b604082019050919050565b600060208201905081810360008301526129eb816129af565b9050919050565b7f4e487b7100000000000000000000000000000000000000000000000000000000600052603260045260246000fd5b7f4552433732313a206f776e657220717565727920666f72206e6f6e657869737460008201527f656e7420746f6b656e0000000000000000000000000000000000000000000000602082015250565b6000612a7d60298361208f565b9150612a8882612a21565b604082019050919050565b60006020820190508181036000830152612aac81612a70565b9050919050565b7f4552433732313a2062616c616e636520717565727920666f7220746865207a6560008201527f726f206164647265737300000000000000000000000000000000000000000000602082015250565b6000612b0f602a8361208f565b9150612b1a82612ab3565b604082019050919050565b60006020820190508181036000830152612b3e81612b02565b9050919050565b6000819050919050565b600060ff82169050919050565b6000819050919050565b6000612b81612b7c612b7784612b45565b612b5c565b612b4f565b9050919050565b612b9181612b66565b82525050565b6000602082019050612bac6000830184612b88565b92915050565b7f4e487b7100000000000000000000000000000000000000000000000000000000600052601160045260246000fd5b6000612bec8261213f565b9150612bf78361213f565b9250827fffffffffffffffffffffffffffffffffffffffffffffffffffffffffffffffff03821115612c2c57612c2b612bb2565b5b828201905092915050565b7f4552433732313a206f70657261746f7220717565727920666f72206e6f6e657860008201527f697374656e7420746f6b656e0000000000000000000000000000000000000000602082015250565b6000612c93602c8361208f565b9150612c9e82612c37565b604082019050919050565b60006020820190508181036000830152612cc281612c86565b9050919050565b7f4552433732313a207472616e736665722066726f6d20696e636f72726563742060008201527f6f776e6572000000000000000000000000000000000000000000000000000000602082015250565b6000612d2560258361208f565b9150612d3082612cc9565b604082019050919050565b60006020820190508181036000830152612d5481612d18565b9050919050565b7f4552433732313a207472616e7366657220746f20746865207a65726f2061646460008201527f7265737300000000000000000000000000000000000000000000000000000000602082015250565b6000612db760248361208f565b9150612dc282612d5b565b604082019050919050565b60006020820190508181036000830152612de681612daa565b9050919050565b6000612df88261213f565b9150612e038361213f565b925082821015612e1657612e15612bb2565b5b828203905092915050565b7f496e697469616c697a61626c653a20636f6e747261637420697320616c72656160008201527f647920696e697469616c697a6564000000000000000000000000000000000000602082015250565b6000612e7d602e8361208f565b9150612e8882612e21565b604082019050919050565b60006020820190508181036000830152612eac81612e70565b9050919050565b7f496e697469616c697a61626c653a20636f6e7472616374206973206e6f74206960008201527f6e697469616c697a696e67000000000000000000000000000000000000000000602082015250565b6000612f0f602b8361208f565b9150612f1a82612eb3565b604082019050919050565b60006020820190508181036000830152612f3e81612f02565b9050919050565b7f4552433732313a20617070726f766520746f2063616c6c657200000000000000600082015250565b6000612f7b60198361208f565b9150612f8682612f45565b602082019050919050565b60006020820190508181036000830152612faa81612f6e565b9050919050565b7f4552433732313a207472616e7366657220746f206e6f6e20455243373231526560008201527f63656976657220696d706c656d656e7465720000000000000000000000000000602082015250565b600061300d60328361208f565b915061301882612fb1565b604082019050919050565b6000602082019050818103600083015261303c81613000565b9050919050565b600081519050919050565b600082825260208201905092915050565b600061306a82613043565b613074818561304e565b93506130848185602086016120a0565b61308d816120d3565b840191505092915050565b60006080820190506130ad60008301876121d4565b6130ba60208301866121d4565b6130c7604083018561226a565b81810360608301526130d9818461305f565b905095945050505050565b6000815190506130f381611ff5565b92915050565b60006020828403121561310f5761310e611fbf565b5b600061311d848285016130e4565b91505092915050565b7f4e487b7100000000000000000000000000000000000000000000000000000000600052603160045260246000fd5b7f4552433732313a206d696e7420746f20746865207a65726f2061646472657373600082015250565b600061318b60208361208f565b915061319682613155565b602082019050919050565b600060208201905081810360008301526131ba8161317e565b9050919050565b7f4552433732313a20746f6b656e20616c7265616479206d696e74656400000000600082015250565b60006131f7601c8361208f565b9150613202826131c1565b602082019050919050565b60006020820190508181036000830152613226816131ea565b905091905056fea2646970667358221220fac3521d28d19c098432331c93c5ed1c1ec7427f49add5e7cf0e6a9ba7d2fce264736f6c634300080b0033",
  "immutableReferences": {},
  "source": "// SPDX-License-Identifier: MIT\npragma solidity >=0.4.22 <0.9.0;\n\nimport \"@openzeppelin/contracts-upgradeable/token/ERC721/extensions/ERC721EnumerableUpgradeable.sol\";\nimport \"@openzeppelin/contracts-upgradeable/proxy/utils/Initializable.sol\";\nimport \"@openzeppelin/contracts-upgradeable/utils/CountersUpgradeable.sol\";\nimport \"../data/ZinkaqDataLayout.sol\";\n\ncontract Zinkaq is Initializable, ERC721EnumerableUpgradeable, ZinkaqDataLayout {\n\n  function initialize() initializer public {\n    __ERC721_init(\"Zinkaq\", \"ZKQ\");\n  }\n\n  function tokenURI(uint256 tokenId) public view override returns (string memory) {\n    return _metaDataUri[tokenId];\n  }\n\n  function mint(string calldata _uri) public returns (uint256) {\n    _currentId += 1;\n    uint256 newItemId = _currentId;\n    _safeMint(_msgSender(), newItemId);\n    _metaDataUri[newItemId] = _uri;\n    return newItemId;\n  }\n}\n",
  "sourcePath": "/Users/swallow/hoby/zinkaq/blockchain/contracts/v1/Zinkaq.sol",
  "compiler": {
    "name": "solc",
    "version": "0.8.11+commit.d7f03943.Emscripten.clang"
  },
  "schemaVersion": "3.4.5",
  "updatedAt": "2022-07-30T05:59:44.297Z",
  "devdoc": {
    "kind": "dev",
    "methods": {
      "approve(address,uint256)": {
        "details": "See {IERC721-approve}."
      },
      "balanceOf(address)": {
        "details": "See {IERC721-balanceOf}."
      },
      "getApproved(uint256)": {
        "details": "See {IERC721-getApproved}."
      },
      "isApprovedForAll(address,address)": {
        "details": "See {IERC721-isApprovedForAll}."
      },
      "name()": {
        "details": "See {IERC721Metadata-name}."
      },
      "ownerOf(uint256)": {
        "details": "See {IERC721-ownerOf}."
      },
      "safeTransferFrom(address,address,uint256)": {
        "details": "See {IERC721-safeTransferFrom}."
      },
      "safeTransferFrom(address,address,uint256,bytes)": {
        "details": "See {IERC721-safeTransferFrom}."
      },
      "setApprovalForAll(address,bool)": {
        "details": "See {IERC721-setApprovalForAll}."
      },
      "supportsInterface(bytes4)": {
        "details": "See {IERC165-supportsInterface}."
      },
      "symbol()": {
        "details": "See {IERC721Metadata-symbol}."
      },
      "tokenByIndex(uint256)": {
        "details": "See {IERC721Enumerable-tokenByIndex}."
      },
      "tokenOfOwnerByIndex(address,uint256)": {
        "details": "See {IERC721Enumerable-tokenOfOwnerByIndex}."
      },
      "tokenURI(uint256)": {
        "details": "See {IERC721Metadata-tokenURI}."
      },
      "totalSupply()": {
        "details": "See {IERC721Enumerable-totalSupply}."
      },
      "transferFrom(address,address,uint256)": {
        "details": "See {IERC721-transferFrom}."
      }
    },
    "version": 1
  },
  "userdoc": {
    "kind": "user",
    "methods": {},
    "version": 1
  }
}